:020000040800F2
:1000000000000220510F0008A10F0008A10F0008F6
:10001000A10F0008A10F0008A10F000800000000B8
:10002000000000000000000000000000E14D00089A
:10003000A10F000800000000714E0008F51C000828
:10004000A10F0008A10F0008A10F0008A10F0008D0
:10005000A10F0008A10F0008A10F0008A10F0008C0
:10006000A10F0008A10F0008A10F0008A10F0008B0
:10007000A10F0008A10F0008A10F0008A10F0008A0
:10008000A10F0008A10F0008F91C000800000000E3
:10009000000000000000000000000000A10F0008A8
:1000A000A10F0008A10F0008A10F0008A10F000870
:1000B000051D0008A10F0008A10F0008A10F0008EE
:1000C000A10F0008A10F0008A10F0008A10F000850
:1000D000A10F0008111D0008A10F0008000000007A
:1000E000A10F0008A10F0008A10F000800000000E8
:1000F000000000000000000000000000A10F000848
:1001000000000000A10F0008A10F0008A10F0008C7
:1001100000000000000000000000000000000000DF
:100120001D1D0008A10F0008291D0008A10F0008CF
:10013000A10F000800000000000000000000000007
:10014000000000000000000000000000A10F0008F7
:10015000A10F0008A10F0008351D0008A10F00081D
:10016000A10F0008A10F000800000000000000001F
:10017000000000000000000000000000000000007F
:1001800000000000A10F00080000000000000000B7
:08019000A10F0008A10F0008F7
:1001A00010B5054C237833B9044B13B10448AFF3B1
:1001B00000800123237010BD7400002000000000A7
:1001C0007884000808B5034B1BB103490348AFF31B
:1001D000008008BD0000000078000020788400083E
:1001E00001F0FF01102A2BDB10F0070F08D010F8E8
:1001F000013B013A8B422DD010F0070F42B3F6D1EC
:10020000F0B441EA012141EA014122F007047FF004
:1002100000070023F0E80256083C85EA010586EA5B
:10022000010685FA47F5A3FA87F586FA47F6A5FA97
:1002300087F68EB9EED1F0BC01F0FF0102F00702A3
:1002400032B110F8013B013A83EA010313B1F8D14E
:100250000020704701387047002D06BF354603382F
:10026000073815F0010F07D1013015F4807F02BF68
:10027000013015F4C03F0130F0BC0138704700BFB9
:1002800081F0004102E000BF83F0004330B54FEA47
:1002900041044FEA430594EA050F08BF90EA020FB4
:1002A0001FBF54EA000C55EA020C7FEA645C7FEA47
:1002B000655C00F0E2804FEA5454D4EB5555B8BF6A
:1002C0006D420CDD2C4480EA020281EA030382EADB
:1002D000000083EA010180EA020281EA0303362D6D
:1002E00088BF30BD11F0004F4FEA01314FF4801C40
:1002F0004CEA113102D0404261EB410113F0004F52
:100300004FEA03334CEA133302D0524263EB430308
:1003100094EA050F00F0A780A4F10104D5F1200EA6
:100320000DDB02FA0EFC22FA05F2801841F1000101
:1003300003FA0EF2801843FA05F359410EE0A5F1D5
:1003400020050EF1200E012A03FA0EFC28BF4CF006
:10035000020C43FA05F3C01851EBE37101F00045BC
:1003600007D54FF0000EDCF1000C7EEB00006EEBC9
:100370000101B1F5801F1BD3B1F5001F0CD3490853
:100380005FEA30004FEA3C0C04F101044FEA4452AA
:1003900012F5800F80F09A80BCF1004F08BF5FEA31
:1003A000500C50F1000041EB045141EA050130BD11
:1003B0005FEA4C0C404141EB010111F4801FA4F1B4
:1003C0000104E9D191F0000F04BF01460020B1FA09
:1003D00081F308BF2033A3F10B03B3F120020CDA41
:1003E0000C3208DD02F1140CC2F10C0201FA0CF01F
:1003F00021FA02F10CE002F11402D8BFC2F1200C84
:1004000001FA02F120FA0CFCDCBF41EA0C01904039
:10041000E41AA2BF01EB0451294330BD6FEA040482
:100420001F3C1CDA0C340EDC04F11404C4F120026D
:1004300020FA04F001FA02F340EA030021FA04F37F
:1004400045EA030130BDC4F10C04C4F1200220FAD6
:1004500002F001FA04F340EA0300294630BD21FA14
:1004600004F0294630BD94F0000F83F4801306BFDA
:1004700081F480110134013D4EE77FEA645C18BFCE
:100480007FEA655C29D094EA050F08BF90EA020F65
:1004900005D054EA000C04BF1946104630BD91EA5D
:1004A000030F1EBF0021002030BD5FEA545C05D160
:1004B0004000494128BF41F0004130BD14F580049F
:1004C0003CBF01F5801130BD01F0004545F0FE4113
:1004D00041F470014FF0000030BD7FEA645C1ABF48
:1004E000194610467FEA655C1CBF0B46024650EA7F
:1004F000013406BF52EA033591EA030F41F40021AB
:1005000030BD00BF90F0000F04BF0021704730B530
:100510004FF4806404F132044FF000054FF0000105
:1005200050E700BF90F0000F04BF0021704730B5C6
:100530004FF4806404F1320410F0004548BF40429B
:100540004FF000013EE700BF42004FEAE2014FEAF0
:1005500031014FEA02701FBF12F07F4393F07F4FCB
:1005600081F06051704792F0000F14BF93F07F4FFD
:10057000704730B54FF4607401F0004521F0004140
:1005800020E700BF50EA010208BF704730B54FF0C6
:1005900000050AE050EA010208BF704730B511F0CB
:1005A000004502D5404261EB41014FF4806404F103
:1005B00032045FEA915C3FF4DCAE4FF003025FEA85
:1005C000DC0C18BF03325FEADC0C18BF033202EB0D
:1005D000DC02C2F1200300FA03FC20FA02F001FA67
:1005E00003FE40EA0E0021FA02F11444C1E600BF06
:1005F00070B54FF0FF0C4CF4E06C1CEA11541DBFB9
:100600001CEA135594EA0C0F95EA0C0F00F0DEF883
:100610002C4481EA030621EA4C5123EA4C5350EA68
:10062000013518BF52EA033541F4801143F48013B9
:1006300038D0A0FB02CE4FF00005E1FB02E506F04A
:100640000042E0FB03E54FF00006E1FB03569CF09F
:10065000000F18BF4EF0010EA4F1FF04B6F5007FA5
:1006600064F5407404D25FEA4E0E6D4146EB060617
:1006700042EAC62141EA55514FEAC52040EA5E50A0
:100680004FEACE2EB4F1FD0C88BFBCF5E06F1ED84A
:10069000BEF1004F08BF5FEA500E50F1000041EB81
:1006A000045170BD06F0004646EA010140EA02002E
:1006B00081EA0301B4EB5C04C2BFD4EB0C0541EA50
:1006C000045170BD41F480114FF0000E013C00F365
:1006D000AB8014F1360FDEBF002001F0004170BD89
:1006E000C4F10004203C35DA0C341BDC04F11404A2
:1006F000C4F1200500FA05F320FA04F001FA05F22E
:1007000040EA020001F0004221F0004110EBD370FA
:1007100021FA04F642EB06015EEA430E08BF20EA26
:10072000D37070BDC4F10C04C4F1200500FA04F3C9
:1007300020FA05F001FA04F240EA020001F000415B
:1007400010EBD37041F100015EEA430E08BF20EACE
:10075000D37070BDC4F1200500FA05F24EEA020E16
:1007600020FA04F301FA05F243EA020321FA04F045
:1007700001F0004121FA04F220EA020000EBD370FC
:100780005EEA430E08BF20EAD37070BD94F0000FFC
:100790000FD101F00046400041EB010111F4801F30
:1007A00008BF013CF7D041EA060195F0000F18BFE1
:1007B000704703F00046520043EB030313F4801F1D
:1007C00008BF013DF7D043EA0603704794EA0C0FD7
:1007D0000CEA135518BF95EA0C0F0CD050EA4106ED
:1007E00018BF52EA4306D1D181EA030101F000416A
:1007F0004FF0000070BD50EA410606BF1046194692
:1008000052EA430619D094EA0C0F02D150EA01369D
:1008100013D195EA0C0F05D152EA03361CBF1046DE
:1008200019460AD181EA030101F0004141F0FE417D
:1008300041F470014FF0000070BD41F0FE4141F401
:10084000780170BD70B54FF0FF0C4CF4E06C1CEA01
:1008500011541DBF1CEA135594EA0C0F95EA0C0FB6
:1008600000F0A7F8A4EB050481EA030E52EA033571
:100870004FEA013100F088804FEA03334FF0805592
:1008800045EA131343EA12634FEA022245EA1115BF
:1008900045EA10654FEA00260EF000419D4208BF70
:1008A000964244F1FD0404F5407402D25B084FEA1D
:1008B0003202B61A65EB03055B084FEA32024FF4C9
:1008C00080104FF4002CB6EB020E75EB030E22BF26
:1008D000B61A754640EA0C005B084FEA3202B6EBE6
:1008E000020E75EB030E22BFB61A754640EA5C0095
:1008F0005B084FEA3202B6EB020E75EB030E22BF25
:10090000B61A754640EA9C005B084FEA3202B6EB25
:10091000020E75EB030E22BFB61A754640EADC00E4
:1009200055EA060E18D04FEA051545EA16754FEA46
:1009300006164FEAC30343EA52734FEAC2025FEA64
:100940001C1CC0D111F4801F0BD141EA00014FF0F3
:1009500000004FF0004CB6E711F4801F04BF0143C4
:100960000020B4F1FD0C88BFBCF5E06F3FF6AFAEE0
:10097000B5EB030C04BFB6EB020C5FEA500C50F170
:10098000000041EB045170BD0EF0004E4EEA1131F3
:1009900014EB5C04C2BFD4EB0C0541EA045170BDFA
:1009A00041F480114FF0000E013C90E645EA060E3E
:1009B0008DE60CEA135594EA0C0F08BF95EA0C0F6C
:1009C0003FF43BAF94EA0C0F0AD150EA01347FF4B4
:1009D00034AF95EA0C0F7FF425AF104619462CE78B
:1009E00095EA0C0F06D152EA03353FF4FDAE1046EE
:1009F000194622E750EA410618BF52EA43067FF43F
:100A0000C5AE50EA41047FF40DAF52EA43057FF4CE
:100A1000EBAE12E74FF0FF3C06E000BF4FF0010CD9
:100A200002E000BF4FF0010C4DF804CD4FEA410C3D
:100A30007FEA6C5C4FEA430C18BF7FEA6C5C1BD00A
:100A400001B050EA410C0CBF52EA430C91EA030F8B
:100A500002BF90EA020F0020704710F1000F91EAE8
:100A6000030F58BF994208BF90422CBFD8176FEAB6
:100A7000E37040F0010070474FEA410C7FEA6C5C84
:100A800002D150EA013C07D14FEA430C7FEA6C5C8B
:100A9000D6D152EA033CD3D05DF8040B704700BFB7
:100AA0008446104662468C461946634600E000BF05
:100AB00001B5FFF7B7FF002848BF10F1000F01BDD7
:100AC0004DF808EDFFF7F4FF0CBF012000205DF8A2
:100AD00008FB00BF4DF808EDFFF7EAFF34BF012027
:100AE00000205DF808FB00BF4DF808EDFFF7E0FFC0
:100AF00094BF012000205DF808FB00BF4DF808ED11
:100B0000FFF7CEFF94BF012000205DF808FB00BF77
:100B10004DF808EDFFF7C4FF34BF012000205DF859
:100B200008FB00BF4FEA410C7FEA6C5C02D150EA3F
:100B3000013C0AD14FEA430C7FEA6C5C02D152EAD5
:100B4000033C02D14FF0000070474FF001007047A6
:100B50004FEA410212F5001215D211D56FF47873E5
:100B6000B3EB625212D94FEAC12343F0004343EA88
:100B7000505311F0004F23FA02F018BF4042704763
:100B80004FF00000704750EA013005D111F00040ED
:100B900008BF6FF0004070474FF00000704700BF83
:100BA0004FEA4102B2F1E04324BFB3F5001CDCF18F
:100BB000FE5C0DD901F0004C4FEAC0024CEA5070C7
:100BC000B2F1004F40EB830008BF20F001007047F6
:100BD00011F0804F21D113F13872BCBF01F00040F9
:100BE000704741F480114FEA5252C2F11802C2F12B
:100BF000200C10FA0CF320FA02F018BF40F00100AC
:100C00004FEAC1234FEAD32303FA0CFC40EA0C005D
:100C100023FA02F34FEA4303CCE77FEA625307D19A
:100C200050EA01331EBF4FF0FE4040F440007047D1
:100C300001F0004040F0FE4040F40000704700BF6B
:100C400053B94AB9002908BF00281CBF4FF0FF3133
:100C50004FF0FF3000F07AB9ADF1080C6DE904CE29
:100C600000F006F8DDF804E0DDE9022304B0704787
:100C70002DE9F0478C460D460446089E002B51D1C5
:100C80008A4217466DD9B2FA82FEBEF1000F0BD030
:100C9000CEF1200C01FA0EF520FA0CFC02FA0EF748
:100CA0004CEA050C00FA0EF44FEA174A250CBCFB7F
:100CB000FAF81FFA87F90AFB18CC45EA0C4508FB3D
:100CC00009F3AB420AD9ED1908F1FF3280F0238114
:100CD000AB4240F22081A8F102083D44ED1AA4B2D3
:100CE000B5FBFAF00AFB105544EA054400FB09F98C
:100CF000A14509D9E41900F1FF3380F00A81A1452B
:100D000040F2078102383C44A4EB090440EA084061
:100D10000021002E61D024FA0EF4002334607360A9
:100D2000BDE8F0878B4207D9002E54D0002186E819
:100D300021000846BDE8F087B3FA83F1002940F0AE
:100D40008E80AB4202D3824200F2FA80841A65EBB5
:100D500003050120AC46002E3FD086E81010BDE808
:100D6000F08712B90127B7FBF2F7B7FA87FEBEF199
:100D7000000F34D1EB1B3A0C1FFA87FC0121B3FBA7
:100D8000F2F8250C02FB183345EA03450CFB08F387
:100D9000AB4207D9ED1908F1FF3002D2AB4200F2A5
:100DA000D1808046ED1AA3B2B5FBF2F002FB1055DC
:100DB00043EA05440CFB00FCA44507D9E41900F103
:100DC000FF3302D2A44500F2B8801846A4EB0C040D
:100DD00040EA08409DE731463046BDE8F087CEF155
:100DE000200405FA0EF307FA0EF720FA04F83A0C7D
:100DF00025FA04F448EA0308B4FBF2F14FEA184577
:100E000002FB11441FFA87FC45EA044501FB0CF381
:100E1000AB4200FA0EF409D9ED1901F1FF3080F070
:100E20008A80AB4240F2878002393D44EB1A1FFAB8
:100E300088F5B3FBF2F002FB103345EA034500FBF3
:100E40000CF3AB4207D9ED1900F1FF386FD2AB427A
:100E50006DD902383D44EB1A40EA01418FE7C1F1F8
:100E6000200722FA07F88B4005FA01F448EA030349
:100E700020FA07FE4FEA134CFD404EEA040EB5FB84
:100E8000FCF94FEA1E440CFB19551FFA83F844EA9B
:100E9000054509FB08F4AC4202FA01F200FA01FA36
:100EA00008D9ED1809F1FF3043D2AC4241D9A9F17C
:100EB00002091D442D1B1FFA8EFEB5FBFCF00CFB36
:100EC00010554EEA054400FB08F8A04507D9E41880
:100ED00000F1FF3529D2A04527D902381C4440EA49
:100EE0000940A4EB0804A0FB02894C45C6464D46C8
:100EF00015D312D056B1BAEB0E0364EB050404FA15
:100F000007F7CB401F43CC40376074600021BDE839
:100F1000F0871846F8E69046E0E6C245EAD2B8EB1C
:100F2000020E69EB03050138E4E72846D7E740469F
:100F300091E78146BEE7014678E702383C4445E741
:100F4000084608E7A8F102083D442BE7704700BFB8
:100F5000DFF834D0002103E00C4B5B5843500431E0
:100F60000B480C4B42189A42F6D30B4A02E000237E
:100F700042F8043B094B9A42F9D301F07FF805F09F
:100F8000E1FF00F05FFD704700000220549300086D
:100F90000000002074000020740000205043002056
:100FA000FEE7000007B50A468DF8070001B10122EF
:100FB0004FF480610F4801F04BFE00224FF40051C6
:100FC0000C4801F045FE4FF47A730DF10701012240
:100FD000094802F0D2FB01224FF40051054801F00C
:100FE00037FE01224FF48061024801F031FE03B068
:100FF0005DF804FB00100240944000205F2870B5AB
:1010000006460D46144623D83F2921D80021152035
:10101000FFF7C8FF30460021FFF7C4FF00215F2023
:10102000FFF7C0FF00217520FFF7BCFF2846002115
:10103000FFF7B8FF00213F20FFF7B4FF200A01218E
:10104000FFF7B0FFE0B20121BDE87040FFF7AABF93
:1010500070BD00002DE9F04F85B098465F28BDF8BF
:1010600038300193064689460DD83F290BD812B275
:101070004FEA021B02EB4202930002931B4B0C4609
:101080000027474502D105B0BDE8F08FB8F10C0F3D
:101090001ED1029ABA18A2F5C072D55C04F1080AF2
:1010A0005FFA8AFA2A0606D5019A0393214630464A
:1010B000FFF7A4FF039B0134E4B2A4EB09026D0027
:1010C0004245EDB20ED10136F6B24C460137D8E7B3
:1010D000B8F1100F01BF07EB0B02A2F50072044933
:1010E000555CDBE75445DDD1F0E700BFF484000830
:1010F00068890008F8B5074600240025E6B2E8B282
:101100003A4631460135FFF779FF602DF7D10134BA
:10111000A4B2402CF1D1F8BD2DE9F74F5F28044669
:101120000D4617461E46BDF830A009D83F2907D8FE
:101130004FEA5308C8F16009C3F1400B3B7813B97B
:1011400003B0BDE8F08F4C4508DD3544EDB25D4598
:1011500003DD0020FFF7CEFF0025002417F8012B48
:10116000CDF800A02046334629464444FFF772FFDD
:10117000E4B2E3E72DE9F0410F4684B200F10F0538
:10118000A54201DABDE8F08100265FFA84F8F0B2EA
:101190003A4641460136FFF731FF602EF7D1013460
:1011A000A4B2EDE72DE9F0410F4684B200F10B0542
:1011B000A54201DABDE8F08100265FFA84F8F0B2BA
:1011C0003A4641460136FFF719FF602EF7D1013448
:1011D000A4B2EDE710B5554C012220464FF4006152
:1011E00001F036FD012220464FF4005101F030FDA0
:1011F0000021AE20FFF7D6FE00218120FFF7D2FEAE
:101200000021FF20FFF7CEFE00218220FFF7CAFE5B
:101210000021FF20FFF7C6FE00218320FFF7C2FE5A
:101220000021FF20FFF7BEFE00218720FFF7BAFE56
:1012300000210620FFF7B6FE00218A20FFF7B2FE4C
:1012400000216420FFF7AEFE00218B20FFF7AAFEED
:1012500000217820FFF7A6FE00218C20FFF7A2FED8
:1012600000216420FFF79EFE0021A020FFF79AFED8
:1012700000217220FFF796FE0021A120FFF792FEC9
:1012800000210846FFF78EFE0021A220FFF78AFE0C
:1012900000210846FFF786FE0021A420FFF782FE0A
:1012A0000021A820FFF77EFE00213F20FFF77AFEF5
:1012B0000021AD20FFF776FE00218E20FFF772FEA1
:1012C0000021B020FFF76EFE00210846FFF76AFEFE
:1012D0000021B120FFF766FE00213120FFF762FEFA
:1012E0000021B320FFF75EFE0021F020FFF75AFE39
:1012F0000021BB20FFF756FE00213A20FFF752FEE7
:101300000021BE20FFF74EFE00213E20FFF74AFEDF
:1013100000212E20FFF746FEAF200021FFF742FEFE
:101320000020BDE81040FFF7E5BE00BF00100240FE
:101330001FB52F482F4B304A82624FF4403480E86B
:1013400018000023012483600362C362C360052385
:1013500004618461C3610463446100F0F5FE18B167
:101360005421264800F0A3FB072369462048009437
:101370000194029301F0E4F818B15E211F4800F0D7
:1013800096FB0223009301936946002318480293B9
:1013900001F0D6F818B16821184800F088FB032343
:1013A00000930193694607231148029301F0C8F89E
:1013B00018B17221114800F07AFB042369460C48E9
:1013C0000093019301F0BCF818B17B210B4800F0A9
:1013D0006EFB0523694606480093019301F0B0F8BF
:1013E00018B18421054800F062FB04B010BD00BFB5
:1013F000603E0020002001400100000F588F0008CF
:1014000070B50268214B9A4286B006463BD1002552
:1014100003F58C3300955A6C1D481E4C42F48072C3
:101420005A645B6C039503F480730093009B3E2326
:10143000019301A90323029301F02EFB164BA56033
:1014400084E828004FF4806323614FF48053636184
:101450004FF48043A36120464FF48073E560E3615D
:101460002562656201F090F918B1B0210B4800F0D7
:101470001EFBB463122000220521A66301F00CF9C3
:10148000122001F03DF906B070BD00BF0020014000
:1014900000000240A83E002010640240588F00085F
:1014A00013B5134B002401941A6B42F480021A63A3
:1014B0001B6B03F480032246019305213820019B16
:1014C00001F0EAF8382001F01BF9224605213A2004
:1014D00001F0E2F83A2001F013F9224605214620F6
:1014E00001F0DAF8462001F00BF902B010BD00BFA0
:1014F00000380240044B5A7B01210A4419705A7388
:10150000024B1970704700BF743F0020900000200C
:1015100008B5012003F0CEFAFBE7000008B505F09E
:10152000E7FC05F0DFFB05F001FC0A480A4C05F07A
:1015300095FD4FF47A7003F0BDFA05F085FC637CED
:101540001BB1B4F9140005F08BFB012003F0B2FAD3
:10155000F3E700BF9A8F0008243F002008B505F08C
:1015600021FC012003F0A6FAF9E7000007B5314895
:10157000304D02F005FF304802F002FF2F4802F024
:10158000FFFE2F4802F0FCFEFFF724FE0020FFF7CD
:10159000B1FD00214FF4FC6308460093294A102353
:1015A000FFF7BAFD4FF6FF74102319460094264A40
:1015B0000020FFF7B1FD00941023244A20210020D1
:1015C000FFF7AAFD0C23224A009434210020FFF7E4
:1015D000A3FD4FF4FA6003F06DFA1E481E4C05F0AF
:1015E00069F80121204601F02DFB0146284603F051
:1015F00029FA0221204601F025FB01460E4803F09E
:1016000021FA1021204601F01DFB01460B4803F092
:1016100019FA2021204601F015FB0146084803F085
:1016200011FA02F0C1FE03F0D3F9012003F042FAEF
:10163000D7E700BFEC3F0020B03F0020164000205D
:101640001C3F00206B8F0008778F0008828F0008F6
:10165000898F0008396800080010024008B505228B
:101660000549064800F014FE05F036F905F098F932
:10167000012003F01FFAF7E7F43F0020603E00204E
:1016800070B59CB01CA8294B40F8683D0022012190
:1016900003F018FA264B274C18606423009340F699
:1016A000B83200230421264604F008FD0FCE03AD16
:1016B0000FC533682B60002103A803F0E3F91E4B2C
:1016C00004F1140618600FCE08AD0FC533682B6007
:1016D000002108A803F0D6F9184B04F12806186079
:1016E0000FCE0DAD0FC533682B6000210DA803F0A0
:1016F000C9F9134B04F13C0618600FCE12AD0FC5AB
:1017000033682B60002112A803F0BCF90D4B503454
:1017100018600FCC17AD0FC523682B60002117A8E8
:1017200003F0B0F9084B18601CB070BDF514000848
:10173000BC3F00209084000808400020104000209A
:10174000703F00208C3F00200C4000202DE9F04F1E
:101750008DB00024584B01941A6B584D584FDFF848
:1017600070B142F010021A631A6B02F0100201927B
:10177000019A02941A6B42F004021A631A6B02F087
:1017800004020292029A03941A6B42F080021A63D6
:101790001A6B02F080020392039A04941A6B42F0CF
:1017A00001021A631A6B02F001020492049A059472
:1017B0001A6B42F002021A631A6B02F002020592DF
:1017C000059A06941A6B42F008021A631B6B03F029
:1017D00008030693224628464FF43051069B01F039
:1017E00037FA224638464FF2100101F031FA02264C
:1017F000302307A928464FF0050907930894099656
:1018000001F04AF9082307A92E4807934FF0010871
:10181000089609940A94CDF82C9001F03DF92A4BD2
:10182000089307A958464FF0030ACDF81C80099485
:1018300001F032F9C02307A9584607930896099486
:10184000CDF828A0CDF82C9001F026F94FF43053B4
:1018500007A928460793CDF8208009940A9401F03F
:101860001BF94FF4806307A9184807930896099459
:101870000A94CDF82C9001F00FF94FF2100307A94C
:1018800038460793CDF8208009940A9401F004F9B2
:10189000202307A9384607930894099401F0FCF81F
:1018A00007A92846CDF81CA00894099401F0F4F883
:1018B0000DB0BDE8F08F00BF0038024000100240BC
:1018C000000C024000080240000012100004024018
:1018D0000000024008B50D480D4BDFF83CE04FF426
:1018E000804280E8084000238360C3600261436156
:1018F0008361C361036201F0B5F928B14C21054849
:10190000BDE8084000F0D3B808BD00BF204000206B
:1019100000540040DA8F0008A086010010B502686C
:10192000104B9A4286B01AD14FF4107301931223D0
:10193000029301230393042300240DEB03010A48BF
:101940000593049401F0A8F8084B00941A6C42F433
:1019500000121A641B6C03F400130093009B06B082
:1019600010BD00BF00540040000402400038024097
:1019700010B50348144692B202F0A0FB204610BDF9
:101980006042002070B59AB000232C4A0193116C7C
:1019900041F080511164126C02F080520192019A60
:1019A000274A0293116841F440411160126815936F
:1019B00002F440420292029A0A220E920122082365
:1019C0001192102113920224C02204260EA8129113
:1019D0001494169317921896199301F0B1F900B167
:1019E000FEE74FF4A0530F250590069303214FF413
:1019F000805303A803950494079301F051FB00B1B1
:101A0000FEE74FF4007308A808940C9301F026FC3D
:101A1000044600B1FEE701F0DDFB4FF47A73B0FB42
:101A2000F3F000F079FE304600F08CFE22462946A5
:101A30004FF0FF3000F030FE1AB070BD00380240A9
:101A40000070004008B500F03FFBFFF79BFFFFF779
:101A50007DFEFFF725FDFFF76BFCFFF73BFF00F076
:101A600027F800F073F800F06BF900F0F1F900F0DE
:101A700025FA00F043FA4FF40041084801F0EDF870
:101A80004FF4FA7000F04CFB4FF40041034801F0B2
:101A9000E4F8FFF7F5FD02F0F0FFFEE7000C02406E
:101AA0000368B3F1804F01D100F028BB7047FEE717
:101AB00010B51D481D4B00244FF07F0E86B080E806
:101AC0001840FF23C36004614461846101F098FC05
:101AD00018B14C211648FFF7EAFF012201A912486C
:101AE0008DF804408DF805408DF806400494059467
:101AF00001F03FFD18B158210D48FFF7D8FF012232
:101B00000023694608488DF800208DF801208DF8E3
:101B100002208DF8033001F0CCFC18B1622104489A
:101B2000FFF7C5FF06B010BD74400020002800403C
:101B3000ED8F00080268034B9A4202BF024B01225C
:101B40001A607047002800403C0E474208B5104814
:101B5000104B02224FF4827E80E80840026100238D
:101B600001228360C3604261C3614FF4007203626B
:101B7000436283620A238261C36201F0C1FD28B11E
:101B80004F210548BDE80840FFF791BF08BD00BFE1
:101B90009440002000340140009000087FB50268A6
:101BA000104B9A421AD1002103F5823300915A6CEE
:101BB0000D4842F400525A645B6C039103F40053E5
:101BC0000093009B4FF4A04301930223029303234D
:101BD000049301A90523059300F05EFF07B05DF8AB
:101BE00004FB00BF003401400010024013B5224B3B
:101BF000002400945A6C42F480425A645A6C02F4F5
:101C000080420092009A01941A6C42F080521A6449
:101C10001B6C03F0805301930320019B00F02AFD0D
:101C2000224621466FF00B0000F036FD2246214689
:101C30006FF00A0000F030FD224621466FF00900E7
:101C400000F02AFD224621466FF0040000F024FD3A
:101C5000224621466FF0030000F01EFD22460F21B0
:101C60006FF0010000F018FD22460F214FF0FF3009
:101C700000F012FD02B010BD0038024030B5014640
:101C800089B000221C2000F007FD1C2000F038FD68
:101C90000025154B02951A6C144C42F001021A648F
:101CA0001B6C03F00103029301A903A8029B01F03E
:101CB000B7FA01F095FA4FF08043236040F2E73322
:101CC000E36040000A4BB0FBF3F00138606020464F
:101CD0002561A56001F06CFF20B9204601F06BFE84
:101CE00009B030BD0120FBE700380240EC40002085
:101CF00040420F0002F0F6BE014800F081BB00BF79
:101D0000603E0020014801F065BE00BFEC400020AD
:101D1000014802F08DBA00BF60420020014800F087
:101D200001BE00BFA83E0020014800F0FBBD00BF7F
:101D300000420020014800F0F5BD00BFA041002096
:101D400010B51448144B8CB0002480E8180003A987
:101D500001238460C4600461446103930494059387
:101D600006940794089409930A940B9401F054FF85
:101D700018B155210948FFF79AFE01A905480194B9
:101D8000029402F021F818B15C210448FFF78FFE9D
:101D90000CB010BD64410020000001401390000809
:101DA0007FB502680F4B9A4218D100230E4A009368
:101DB000516C0E4841F001015164526C039302F0E2
:101DC00001020092009A04934FF4407201920123A1
:101DD000022201A90292059300F05EFE07B05DF8B1
:101DE00004FB00BF00000140003802400000024038
:101DF0000268094B9A4282B00BD100230193074B32
:101E00001A6C42F002021A641B6C03F00203019385
:101E1000019B02B0704700BF000400400038024040
:101E20007FB50268084B9A420BD1402300220193F0
:101E300001A902230548029303920492059300F03E
:101E40002BFE07B05DF804FB0004004000080240D0
:101E500010B51748174B00248AB080E8180084603A
:101E6000C460046101F0BEFE18B16D211248FFF795
:101E70001EFE01A90E480194029401F0A5FF18B1BD
:101E800074210D48FFF713FE0022602303A90848C0
:101E9000039304920592079201F034FF18B17D215B
:101EA0000548FFF704FE0248FFF7BAFF0AB010BD6D
:101EB00028410020000400401390000808B50C4899
:101EC0000C4B4FF4E13E80E808400C220023836075
:101ED000C360036142618361C36102F0C1F828B14C
:101EE00050210548BDE80840FFF7E1BD08BD00BF2F
:101EF00060420020001001402690000808B50C4800
:101F00000C4B4FF4E13E80E808400C220023836034
:101F1000C360036142618361C36102F0A1F828B12B
:101F200063210548BDE80840FFF7C1BD08BD00BFFB
:101F3000A04200200014014026900008F0B503687C
:101F4000444A934289B006465BD10025424B019535
:101F50005A6C4248424C42F010025A645B6C03F0E7
:101F600010030193019B4FF4044303930223049352
:101F7000012305930323069303A90723079300F086
:101F80008BFD384BA5604FF0006E84E808404FF49D
:101F90008063236120464FF48073E5606561A5612D
:101FA000E3612562656200F0EFFB18B18D212E48D8
:101FB000FFF77DFD74632D4BA6632D4C4FF000653C
:101FC000402784E8A8004FF4806200232046E360A5
:101FD00022616361A361E3612362636200F0D4FB69
:101FE00018B19F212048FFF762FD346325200022AD
:101FF0000521A66300F050FB252000F081FB09B00D
:10200000F0BD1C4A9342FAD100230293124B1A48A6
:102010005A6C42F020025A645B6C03F02003029376
:10202000029B0227802301260325082403A903938A
:10203000049705960695079400F02EFD4FF4006373
:1020400003A906480393049705960695079400F0A4
:1020500023FDD4E700100140003802400000024098
:10206000004200204064024026900008B86402400C
:10207000A041002000140140000802400F49D1F89F
:10208000883043F47003C1F888300D4B1A68002083
:1020900042F001021A6098601A6822F0847222F4F9
:1020A00080321A60074A5A601A6822F480221A6045
:1020B000D8604FF000638B60704700BF00ED00E018
:1020C000003802401030002408B50B4B1A6842F467
:1020D00000721A601A6842F480621A601A6842F448
:1020E00080721A60032000F0C5FA0020FFF7C6FDD9
:1020F000FFF77CFD002008BD003C0240034A044B72
:1021000011681B780B441360704700BFE042002049
:1021100004000020014B1868704700BFE042002017
:1021200038B50446FFF7F6FF631C1CBF054B1B7850
:10213000054618BFE418FFF7EDFF401B8442FAD8AC
:1021400038BD00BF0400002010B50446002800F090
:102150009980036C23B9436480F83C30FFF750F951
:10216000236CDB0600F18C80236C23F4885323F06E
:10217000020343F002032364434B5A6822F44032C3
:102180005A605A6861680A435A60236821695A682C
:1021900022F480725A605A6842EA01225A605A68F0
:1021A000A16822F040725A605A680A435A609A68DD
:1021B000E16822F400629A609A680A439A6033499F
:1021C000A26A8A4250D0996821F07061996099683A
:1021D0000A439A609A68E16A22F040529A609A68CB
:1021E0000A439A609A68A16922F002029A609A688A
:1021F00042EA41029A60226A002A3DD05A68616A26
:1022000042F400625A605A6822F460425A605A6886
:10221000013942EA41325A60DA6AE16922F4700215
:10222000DA62DA6A013942EA0152DA629A68216BAB
:1022300022F400729A609A6842EA41229A609A688F
:10224000616922F480629A609A68002042EA8122E1
:102250009A606064236C23F0030343F0010323645A
:10226000002384F83C3010BD9A6822F070629A60B6
:102270009A6822F04052B4E75A6822F40062CAE732
:102280000120EDE7012010BD002301400100000FF7
:1022900037B513460022019290F83C20012A0446EB
:1022A00065D00568012280F83C20AA68D20705D5D0
:1022B000AA68D00715D4002003B030BDAA6842F048
:1022C0000102AA602B4A10682B4AB0FBF2F000EB27
:1022D00040000190019A002AEAD0019A013A019245
:1022E000F8E7206C20F4E06020F0010040F48070FA
:1022F00020646A68520541BF206C20F4405040F4CD
:1023000080502064226CA06B12F480521CBF626C5F
:1023100022F006026264002284F83C20174AC2635D
:10232000174A0264174AC2646FF022022A606A6880
:1023300042F080626A60AA6842F48072AA600A462B
:1023400005F14C0100F09EFA0F4B5B6813F01F0F74
:10235000236808D1986810F04050ACD19A6842F0D8
:1023600080429A60A8E7094A9342A4D1F2E702208A
:10237000A2E700BF0000002040420F0091230008A8
:10238000F323000829250008002301400020014014
:10239000836B1A6C12F0500F10B524D11A6C42F4F2
:1023A00000721A641A68916811F0405F17D1996938
:1023B000A9B9D16A11F4700F02D0916849050ED401
:1023C000516821F0200151601A6C22F480721A6465
:1023D0001A6CD2045EBF1A6C42F001021A641846ED
:1023E00004F066FA10BD9B6BBDE81040DB6C18472B
:1023F000704708B5806BFFF7FBFF08BD704770475B
:1024000038B5036819685A688D0704462BD59006BD
:1024100029D5226CD1065EBF226C42F40072226480
:102420009A6812F0405F17D1A269AAB9DA6A12F469
:10243000700F02D09A6852050ED45A6822F020021A
:102440005A60236C23F480732364236CDB045EBF27
:10245000236C43F001032364204604F029FA236827
:102460006FF012021A60236819685A684D0732D556
:10247000100630D5226CD1065EBF226C42F40052A9
:1024800022649A6812F4401F1ED19A6B12F4401F06
:1024900002D09A68520517D45A68550514D49A6820
:1024A00012F0405F10D1A26972B95A6822F080021E
:1024B0005A60236C23F480532364236CD8055EBFD9
:1024C000236C43F001032364204600F0D1F8236815
:1024D0006FF00C021A60236819685A68C9070FD593
:1024E00055060DD51B68D8070AD5236C43F48033F5
:1024F00023642046FFF782FF23686FF001021A6011
:10250000236819685A6889060DD552010BD5626C8B
:102510006FF0200542F00202626420461D60FFF762
:102520006EFF23681D6038BD806B08B540230364CF
:10253000436C43F004034364FFF761FF08BD0000F0
:10254000F7B50023019390F83C30012B6AD00D6859
:1025500004688A680123092D80F83C30AEB22AD97C
:1025600006EB4603E7681E3B4FF0070E0EFA03FE2C
:1025700027EA0E07E760E76802FA03F33B43E360EC
:102580004A68062A4FEA820325D81344676B591F0D
:102590001F238B4027EA03036363626B06FA01F192
:1025A000114361632D4B9C4234D0002380F83C30B2
:1025B000184603B0F0BD276905EB45034FF0070E41
:1025C0000EFA03FE27EA0E072761276902FA03F3D2
:1025D0003B432361D4E70C2A0ED81344216BA3F1AB
:1025E00023021F23934021EA03032363236B06FA8C
:1025F00002F21A432263D5E71344E16A413B1F22EA
:102600009A4021EA0202E262E26A06FA03F1114309
:10261000E162C7E7122D07D1114A536843F48003E2
:102620005360C2E70220C4E70E4B9D4201D0112D3A
:10263000BBD10B494A689D4242F400024A60B4D1C2
:10264000094B0A4A1B68B3FBF2F20A235343019376
:10265000019B002BA9D0019B013BF8E70020014022
:1026600000230140120000100000002040420F0033
:1026700070470000074AD36823F4E0631B041B0C77
:1026800043F0BF63000243F4003300F4E06003430F
:10269000D360704700ED00E0174B30B5DC68C4F341
:1026A0000224C4F10703251D042B28BF0423062D93
:1026B0004FF0010505FA03F303F1FF338CBF033C30
:1026C00000241940A14005FA04F4013C22400028EE
:1026D00042EA01024FEA0212AFBF00F1604000F08F
:1026E0000F00064BD2B2A5BF00F56140D2B21A541A
:1026F00080F8002330BD00BF00ED00E014ED00E0E5
:102700004209012300F01F0003FA00F0014B43F8D7
:102710002200704700E100E00138B0F1807F0AD26A
:10272000064B074A5860F02182F823100020072248
:1027300098601A6070470120704700BF10E000E009
:1027400000ED00E0044B1A6804280CBF42F00402BC
:1027500022F004021A60704710E000E00368DAB269
:1027600023F47F7323F003031821103AB2FBF1F234
:102770000449032A88BF0433895C8365C165806D81
:10278000704700BF5390000870B50446FFF7C2FCC5
:102790000546002C71D0002384F8343022680223CF
:1027A00084F83530136823F00103136021680B6847
:1027B000D8073CD40B68324D6268A0691D40A368FD
:1027C0001343E26813432269134362691343E269C6
:1027D00003431343226A1343626A042A43EA05034C
:1027E00001BF266BE56A35432B430B604B69042A16
:1027F00023F0070343EA02030BD1A26AE56A1343FD
:102800003DB1F8B9012A2DD001D3022A01D1EA0144
:102810002BD44B612046FFF7A1FFE26D3F2393408D
:10282000836000200123606584F8353070BDFFF7B8
:1028300071FC401B0528B9D920236365032084F867
:10284000350070BDB0F5005F13D1032AE1D801A0B7
:1028500050F822F06B2800080F2800086B280008A9
:1028600065280008B5F1C07FD3D1402363650120FE
:10287000E5E7022AF9D9032AC8E7012070BD00BFA5
:102880003F8010F070B590F83440012C36D0012410
:1028900080F8344090F83540866D012C4FF00005EB
:1028A0004FF0020428D180F835400468456525685A
:1028B00025F48025256063608368402B0EBFA260ED
:1028C000A160E260C26D08BFE1603F239340B36046
:1028D000236843F016032360636943F08003636158
:1028E000036C1BB1236843F008032360236843F0A3
:1028F00001032360002070BD80F83450022070BDB9
:1029000090F83530022B03D08023436501207047B7
:102910000268052380F83530136823F00103136043
:1029200000207047F7B5002301935A4B856D1F684F
:10293000C36D2E6808229A40164204460CD00168E6
:102940000868400708D5086820F004000860AA60FD
:10295000626D42F00102626501229A40164208D07F
:1029600021684969090641BFAA60626D42F002020E
:10297000626504229A40164208D0216809688807D7
:1029800041BFAA60626D42F00402626510229A4063
:10299000164210D02368196809070CD5AA601A6876
:1029A000500335D51B68190301D4236C00E0A36CD8
:1029B0000BB120469847E16D20228A40164238D05C
:1029C00023681868C60634D5AA6094F83520052A0D
:1029D0001A6825D122F016021A605A6922F0800284
:1029E0005A61226C0AB9A26C1AB11A6822F0080264
:1029F0001A603F238B40AB60002384F834300123FE
:102A000084F83530236D0BB12046984703B0F0BDF4
:102A10001A68D2055EBF1A6822F008021A60C4E77D
:102A2000500328D51B68190332D4636C0BB12046C0
:102A30009847636D002BE9D0636DDA0719D505233C
:102A4000226884F83530136823F0010313604FF4D3
:102A50001653B7FBF3F7019B01339F42019302D357
:102A60001368DB07F7D4002384F83430012384F89B
:102A70003530E36CC7E71A6812F4807208D1196820
:102A800021F010011960012384F8342084F83530D6
:102A9000E36BCBE7000000202DE9F04F85B00B6819
:102AA000DFF89C81644A01934FF001090023019CE7
:102AB00009FA03F707EA0406B74240F0AD804C6814
:102AC00024F0100ABAF1020F16D14FEAD30C00EB32
:102AD0008C0C03F0070BDCF820504FEA8B0B4FF007
:102AE0000F0E0EFA0BFE25EA0E0E0D6905FA0BF518
:102AF00045EA0E05CCF820504FEA430C0325D0F8E8
:102B000000B005FA0CF5ED4304F0030E0BEA050BDB
:102B10000EFA0CFE0AF1FF3A4EEA0B0EBAF1010F63
:102B20000095C0F800E015D8D0F808E005EA0E0ED0
:102B3000CD6805FA0CFA4AEA0E0EC0F808E0D0F8A3
:102B400004E02EEA0707C4F3001E0EFA03FE4EEA65
:102B500007074760C768009D3D408F6807FA0CF77C
:102B60003D43C560E50057D54FF0000BCDF80CB0E4
:102B7000D8F84470314D47F48047C8F84470D8F80D
:102B8000447007F480470397039F23F0030707F17E
:102B9000804707F59C3703F0030CD7F808A04FEAED
:102BA0008C0C4FF00F0E0EFA0CFEA8422AEA0E0E05
:102BB00039D005F58065A84237D005F58065A84273
:102BC00035D005F58065A84233D005F58065A8426B
:102BD00014BF0725042505FA0CF545EA0E05BD606E
:102BE0001568F74314F4803F0CBF3D403543156032
:102BF000556814F4003F0CBF3D403543556095685F
:102C000014F4801F0CBF3D4035439560D568A40285
:102C100054BF3D403543D5600133102B7FF447AF9F
:102C200005B0BDE8F08F5D46D5E70125D3E7022565
:102C3000D1E70325CFE700BF003C01400000024080
:102C4000003802400369194214BF01200020704778
:102C50000AB1816170470904FBE74369594041614A
:102C60007047000070B50446002862D090F83D30EF
:102C700003F0FF021BB980F83C20FEF74FFE2268EC
:102C80002D4E2E4D242384F83D30136823F001038C
:102C9000136000F0A5FA63682268B0FBF5F5B34253
:102CA00084BF4FF496716943556091BF691C4FF41E
:102CB0007A75B1FBF5F10131B342116221D85B00A5
:102CC000B0FBF3F0C0F30B03032B98BF0420216A81
:102CD000E369D0610B431360E16823690B439360A0
:102CE000A16963690B43D360136843F00103136068
:102CF00000202023206484F83D30206384F83E00C7
:102D000070BDA16849B903EB4303B0FBF3F0C0F316
:102D10000B0363B140F40040D9E719214B43B0FBEA
:102D2000F3F0C0F30B0313B140F44040CFE70120B0
:102D3000CDE7012070BD00BFA086010040420F001A
:102D40002DE9F341044618B9012002B0BDE8F08135
:102D50000368DD0710D42368980758D423681A073E
:102D600000F19A8023685B0700F1B880A269002A0D
:102D700040F019810020E8E7A64B9A6802F00C02A7
:102D8000042A07D09A6802F00C02082A0AD15B686C
:102D9000590207D59F4B1B689A03DCD56368002B4B
:102DA000D9D1D1E763689B4DB3F5803F11D12B6832
:102DB00043F480332B60FFF7ADF9964D06462B6840
:102DC0009B03C8D4FFF7A6F9801B6428F7D903201A
:102DD000BBE7B3F5A02F04D12B6843F480232B600D
:102DE000E5E72A6822F480322A602A6822F48022E9
:102DF0002A60002BDFD1FFF78DF906462B689F0371
:102E0000A9D5FFF787F9801B6428F7D9DFE7814B45
:102E10009A6812F00C0F07D09A6802F00C02082A88
:102E200011D15B685E020ED47A4B1A68950702D501
:102E3000E268012A88D11A68216922F0F80242EA80
:102E4000C1021A608AE7E268734BB2B101221A60CC
:102E5000FFF760F96F4D06462B68980707D52B687A
:102E6000226923F0F80343EAC2032B6076E7FFF7F9
:102E700051F9801B0228EFD9A9E71A60FFF74AF938
:102E8000644D06462B6899077FF568AFFFF742F956
:102E9000801B0228F6D99AE76269604B7AB1012259
:102EA0001A60FFF737F95B4D06466B6F9F073FF5DA
:102EB00059AFFFF72FF9801B0228F6D987E71A6070
:102EC000FFF728F9534D06466B6F98077FF54AAF19
:102ED000FFF720F9801B0228F6D978E74D4B1A6CD2
:102EE00012F0805228D101921A6C42F080521A647A
:102EF0001B6C03F080530193019B0126484D2B6806
:102F0000D9051BD5A368434D012B27D12B6F43F067
:102F100001032B67FFF7FEF83E4D074641F2883864
:102F20002B6F9B0739D5002E3FF420AF394A136C25
:102F300023F08053136419E70026DFE72B6843F47E
:102F400080732B60FFF7E6F807462B68DA05D9D4C3
:102F5000FFF7E0F8C01B0228F7D938E7052B04D1AA
:102F60002B6F43F004032B67D0E72A6F22F0010296
:102F70002A672A6F22F004022A67002BCAD1FFF7C2
:102F8000C9F841F2883807462B6F9807CBD5FFF771
:102F9000C1F8C01B4045F7D919E7FFF7BBF8C01BC4
:102FA0004045BDD913E71B4DAB6803F00C03082B5C
:102FB0003FF4CAAE1B4E0023022A336034D1FFF720
:102FC000A9F807462B6899011ED4226AE3691343C6
:102FD000626A43EA8213E26A43EA0263A26A0D4C20
:102FE0005208013A43EA02436B6001233360FFF762
:102FF00091F8054623689A013FF5BCAEFFF78AF8C1
:10300000401B0228F6D9E2E6FFF784F8C01B02282D
:10301000D8D9DCE60038024000004742800E474223
:103020000070004060004742FFF774F804462B68C8
:103030009B017FF59FAEFFF76DF8001B0228F6D9C4
:10304000C5E600BF134908B58B6803F00C03042BD9
:1030500003D0082B03D0104808BD104808BD4A68AB
:103060004B68496813F4800314BF0C480A48C1F345
:10307000881118BF002302F03F02A1FB0001FDF7F9
:10308000DFFD044B5B68C3F3014301335B00B0FB1E
:10309000F3F008BD003802400024F40000127A006A
:1030A0002DE9F0410D46044610B90120BDE8F0813C
:1030B000444B1A6802F00F028A4228D321688F0716
:1030C0002DD4C80740D43F4B1A6802F00F02954236
:1030D00066D3226851076CD4130707D53A4A216991
:1030E000936823F4604343EAC1039360FFF7AAFFA8
:1030F000354B364A9B68C3F30313D35CD840344B3B
:1031000018600020FEF7BAFD0020BDE8F081CAB2C9
:103110001A701B6803F00F039942C6D1CEE72A4B01
:1031200011F0040F1EBF9A6842F4E0529A600E0735
:1031300042BF9A6842F460429A609A68A06822F09E
:10314000F00202439A60BCE762681F4B012A1DD15E
:103150001B6813F4003FA8D01B4EB36823F0030391
:103160001343B360FEF7D6FF41F288380746B368D1
:10317000626803F00C03B3EB820FA4D0FEF7CAFF22
:10318000C01B4045F3D90320BDE8F081911E012901
:103190001B6802D813F0007FDDE713F0020FDAE7B7
:1031A000EAB21A701B6803F00F039D427FF47DAFF3
:1031B0008FE70549E0688B6823F4E05303438B6095
:1031C0008AE700BF003C0240003802403B90000804
:1031D00000000020014B1868704700BF000000206D
:1031E000044B054A9B68C3F38223D35C034A1068EF
:1031F000D8407047003802404B9000080000002083
:10320000044B054A9B68C3F34233D35C034A1068FE
:10321000D8407047003802404B9000080000002062
:103220000F2303600B4B9A6802F0030242609A6816
:1032300002F0F00282609A6802F4E052C2609B6879
:10324000DB0803F4E0530361034B1B6803F00F0337
:103250000B60704700380240003C0240036813F0E6
:10326000050FF7B504463CD123689A0730D50023F3
:103270000193454B454D1A6C42F080521A641B6C09
:1032800003F080530193019B2B6843F480732B6000
:10329000FEF740FF06462B68D9054CD53A4D2B6FFB
:1032A00013F440734DD1236903F44072B2F5407FAB
:1032B000354A65D1916823F0704021F4F81120F46B
:1032C000407001439160116FC3F30B030B4313670D
:1032D000206810F008001FBF2D4B227D1A600020CF
:1032E00027E02C4E284D00233360FEF713FF0746DE
:1032F0002B681B0117D4E368A2681B0743EA8213FB
:1033000062681343C5F8843001233360FEF702FF7F
:103310001D4D06462B681801A6D4FEF7FBFE801B48
:103320000228F7D904E0FEF7F5FEC01B0228DFD91A
:10333000032003B0F0BDFEF7EDFE801B0228AAD9E2
:10334000F6E7226902F440729342ACD02B6F124A26
:103350000121116023F44073002111602B672B6F52
:10336000DA07A0D5FEF7D6FE41F2883706462B6F66
:103370009B0798D4FEF7CEFE801BB842F7D9D7E75B
:10338000916821F4F8119DE7003802400070004078
:10339000E011474268004742400E4742026838B594
:1033A000D36823F0A003D3600446FEF7B3FE0546BE
:1033B0002368DB689B0601D5002038BDFEF7AAFE16
:1033C000401BB0F57A7FF3D9032038BD38B50368C8
:1033D000DA685206044601D5002038BD4FF0FF32AE
:1033E000DA60FEF797FE05462368DB685B06F3D4D8
:1033F000FEF790FE401BB0F57A7FF5D9032038BD6B
:1034000038B50446B8B1437F03F0FF0213B9027721
:10341000FEF790FB022363772368CA225A62532285
:103420005A622046FFF7D2FF2368054628B1FF22E3
:103430005A620423637701252EE09A68206922F4FA
:10344000E00222F040029A60626899680243606973
:1034500002430A439A60E2681A611A69A16842EA63
:1034600001421A61DA6822F08002DA609B689B06EA
:1034700005D42046FFF792FF08B12368D7E72368F9
:10348000A1691A6C22F480221A641A6C0A431A6425
:10349000FF225A6201236377284638BD002309289A
:1034A00003D840EA0310C0B270470A380133C0B2F3
:1034B000F5E7F8B5037F012B05464FF0020630D043
:1034C0000123037746774B78C8788E780C78002AEA
:1034D00048D1DA0603D523F010030A334B70FFF707
:1034E000DDFF07464878FFF7D9FF02463046FFF771
:1034F000D5FF40EA443040EA074040EA02242B6806
:10350000CA225A6253225A622846FFF75FFF2B688D
:10351000064640B1FF225A6204236B7700232B77C3
:1035200001263046F8BD24F07F4424F0C0045C60DE
:10353000DA6822F08002DA609B689B060AD428468B
:10354000FFF72CFF30B12B68FF225A6204236B7700
:103550002E77E5E72B68FF225A6201236B77002361
:103560002B77DEE71B0243EA0040304340EA443455
:10357000C5E7F8B5037F012B06460F464FF002055D
:103580002FD0012303770368457708784D788C782E
:103590009B6842BB13F0400308BFCB70FFF77EFF70
:1035A00001462846FFF77AFF02462046FFF776FFDE
:1035B000FB7840EA034040EA014040EA02243368D5
:1035C000CA225A6253225A623046FFF7FFFE33681E
:1035D0000546A8B1FF225A6204237377002333778C
:1035E00001252846F8BD13F040034FEA052508BF22
:1035F000CB7045EA00402043CC7840EA0444DEE743
:1036000004F07F3424F0FE441C609A68386922F488
:1036100080229A60FA68996802430A439A60DA68DD
:1036200022F08002DA609B689B060AD43046FFF7DE
:10363000B5FE30B13368FF225A62042373773577C1
:10364000CEE73368FF225A62012373770023337772
:10365000C7E72DE9F041069E0446884617461D46F9
:103660002268936838EA03030CBF012300239F42BA
:1036700002D10020BDE8F0816B1CF2D055BB23685D
:103680005A6822F0E0025A606268B2F5827F0AD17D
:10369000A268B2F5004F02D0B2F5806F03D11A686C
:1036A00022F040021A60A26AB2F5005F09D11A68DE
:1036B00022F400521204120C1A601A6842F40052EA
:1036C0001A60012384F85130002384F8503003201D
:1036D000BDE8F081FEF71EFD801B8542C0D8CEE715
:1036E00013B50B460092802100220446FFF7B1FF7C
:1036F00020B1636D43F020036365032002B010BD69
:1037000010B50446002836D00023836290F851306B
:1037100003F0FF021BB980F85020FEF73FFA216842
:10372000A068A269022384F851300B6823F040039B
:103730000B6063680343E0680343206903436069E7
:103740000343E0690343206A0343A06A034302F48E
:10375000007003430B60120C636A02F004021A4308
:103760004A60CB6923F40063CB61002001236065CC
:1037700084F8513010BD012010BD2DE9FF411E46D7
:1037800090F85030012B04460D46904600F09C8086
:10379000012380F85030FEF7BDFC074694F8510035
:1037A000C0B2012840F08E80002D4ED0B8F1000F3D
:1037B0004BD0032384F8513000236365A363A4F83E
:1037C0003680A387E38763642364A3682563B3F526
:1037D000004F2368A4F8348002BF1A6842F4804284
:1037E0001A601A6852065EBF1A6842F040021A60F8
:1037F000E268B2F5006F626838D11AB1E28E92B217
:10380000012A06D135F8022BDA60E38E013B9BB228
:10381000E386E38E9BB293B90097334601220221DF
:103820002046FFF716FF78B93A4631462046FFF7A3
:1038300057FF002838D020236365012005E0236866
:103840009A689007DED44EB90320012384F85130E2
:10385000002384F8503004B0BDE8F081711CD8D04A
:10386000FEF758FCC01B8642D3D8EDE71AB1E28EB2
:1038700092B2012A06D115F8012B1A73E38E013B8F
:103880009BB2E386E38E9BB2002BC5D023689A6877
:103890009207F0D4002ED7D0731CF3D0FEF73AFC79
:1038A000C01B8642EED8CFE7A36833B903932368E1
:1038B000DA6803929B680393039B606D003018BF26
:1038C0000120C2E70220C0E70220C4E7036A23F018
:1038D00001030362036A70B5446882690D6822F0CF
:1038E00073022A438D6823F002032B430A4DA8423A
:1038F0000BD1CD688E6923F008032B434D6924F466
:103900004074354323F004032C43446082614A68C9
:103910004263036270BD00BF00000140036A23F4EC
:1039200080730362036A70B54468C2690D6822F04F
:1039300073022A438D6823F4007343EA05230B4D79
:10394000A8420DD1CD688E6923F4006343EA0523B4
:103950004D6924F44054354323F4806344EA05144C
:103960004460C2614A68C263036270BD00000140E6
:10397000036A23F480530362036A30B54468C26962
:103980000D6822F4E64242EA05228D6823F40053D2
:1039900043EA0533064DA84202BF4D6924F4804432
:1039A00044EA85144460C2614A680264036230BD1F
:1039B0000000014070470368DA6842F00102DA60F3
:1039C0001A6842F001021A60002070477047704781
:1039D0007047704703681A69910710B504460ED501
:1039E000DA6892070BD56FF002021A619B69012217
:1039F0009B07027677D0FFF7EAFF00232376236840
:103A00001A69500710D5DA6851070DD56FF0040216
:103A10001A619B69022213F4407F2276204668D007
:103A2000FFF7D5FF0023237623681A6912070FD505
:103A3000DA6810070CD56FF008021A61DB690422FE
:103A40009907227620465AD0FFF7C1FF002323763C
:103A500023681A69D20610D5DA68D0060DD56FF042
:103A600010021A61DB69082213F4407F2276204697
:103A70004BD0FFF7ACFF0023237623681A69D107E8
:103A800008D5DA68D20705D56FF001021A61204621
:103A9000FEF706F823681A69100608D5DA681106D9
:103AA00005D56FF080021A61204600F0B0F9236856
:103AB0001A69520608D5DA68500605D56FF040023B
:103AC0001A612046FFF785FF23681A69910622D5FF
:103AD000DA6892061FD56FF0200220461A61BDE811
:103AE000104000F093B9FFF771FF2046FFF770FF19
:103AF00083E7FFF76BFF2046FFF76AFF92E7FFF7C8
:103B000065FF2046FFF764FFA0E7FFF75FFF204651
:103B1000FFF75EFFAFE710BD224A036890420ED068
:103B2000B0F1804F0BD0A2F57C42904207D002F555
:103B30008062904203D002F58062904219D14A68B7
:103B400023F070031343174A904204D1CA6823F448
:103B50004073134318E0B0F1804FF7D0124A9042FF
:103B6000F4D002F580629042F0D002F5806290427B
:103B7000ECD00E4A9042E9D002F580629042E5D046
:103B800002F580629042E1D003608B68C3620B68EB
:103B90008362044B984204BF0B69036301234361B2
:103BA000704700BF00000140000400400040014099
:103BB00010B50446A0B190F8393003F0FF021BB9EC
:103BC00080F83820FFF7F6FE022384F839302068A9
:103BD000211DFFF7A1FF012384F83930002010BD1B
:103BE000012010BD10B50446A0B190F8393003F0A3
:103BF000FF021BB980F83820FEF7FAF8022384F898
:103C000039302068211DFFF787FF012384F8393000
:103C1000002010BD012010BDF8B50C460546002857
:103C200041D090F8393003F0FF021BB980F83820FA
:103C3000FEF7B6F82946022351F8040B85F839300F
:103C4000836823F007038360FFF766FF2868236813
:103C500086688269A168076A1E43A36922F44072DC
:103C600022F0030241EA0323134323F47C42236935
:103C7000E1691B0143EA0123E1680B43216A22F059
:103C8000FC0243EA01331343616927F0AA02676823
:103C9000866047EA0117836117430123076285F8AD
:103CA00039300020F8BD0120F8BD0000036A23F080
:103CB00010030362036A70B5446882690D6822F4D8
:103CC000E64242EA05228D6823F0200343EA051309
:103CD0000B4DA8420DD1CD688E6923F0800343EAD5
:103CE00005134D6924F44064354323F0400344EA4E
:103CF0008504446082614A688263036270BD00BFCC
:103D00000000014038B590F83830012B04464FF0E0
:103D1000020025D0012384F8383084F839000C2AB9
:103D200018D8DFE802F0071717171E1717172F17F5
:103D3000171740002068FFF7C9FD236809699A69D1
:103D400042F008029A619A6922F004029A619A6923
:103D50000A439A610123002084F8393084F838003E
:103D600038BD2068FFF7A2FF236809699A6942F409
:103D700000629A619A6922F480629A619A6942EAC1
:103D80000122E6E72068FFF7C9FD23680969DA69BF
:103D900042F00802DA61DA6922F00402DA61DA69D3
:103DA0000A43DA61D6E72068FFF7E2FD2368096974
:103DB000DA6942F40062DA61DA6922F48062DA6177
:103DC000DA6942EA0122ECE790F83830012B10B5AD
:103DD0004FF0020318D080F8393003680C685A6835
:103DE000496822F070025A605A6822435A609A6801
:103DF00022F080029A609A680A439A60012380F850
:103E00003930002380F83830184610BD70477047AD
:103E10000368DA6822F49072DA605A6922F00102CB
:103E20005A61202380F83A30704700002DE9F047AE
:103E30000668C2683369C16923F440531343336190
:103E4000044683680069F2680343606922F41642FD
:103E5000034322F00C020B431343F3607369A2691E
:103E600023F440731343B1F5004F73617A4B7CD157
:103E70009E4203D003F580639E4244D1FFF7C0F910
:103E8000192505FB00F360684FF064094000B3FB9F
:103E9000F0F3B3FBF9F34FEA0318FFF7B1F96368E6
:103EA00068435B00B0FBF3F7FFF7AAF96368684368
:103EB0005B00B0FBF3F3B3FBF9F309FB1373DB0017
:103EC0003233B3FBF9F35B0003F4F877FFF798F9AB
:103ED000626868435200B0FBF2FAFFF791F9636839
:103EE00068435B00B0FBF3F3B3FBF9F309FB13A3E7
:103EF000DB003233B3FBF9F303F0070343443B44E5
:103F0000B360BDE8F087FFF76BF9192505FB00F3F7
:103F100060684FF064094000B3FBF0F3B3FBF9F3C2
:103F20004FEA0318FFF75CF9636868435B00B0FB76
:103F3000F3F7FFF755F9636868435B00B0FBF3F3F1
:103F4000B3FBF9F309FB1373DB003233B3FBF9F373
:103F50005B0003F4F877FFF743F9626868435200A7
:103F6000B0FBF2FAFFF73CF9B9E79E4202D03B4BB7
:103F70009E4240D1FFF744F9676819254FF0640964
:103F800005FB00F3BF00B3FBF7F3B3FBF9F31F012D
:103F9000FFF736F9636868439B00B0FBF3F8FFF75F
:103FA0002FF9636868439B00B0FBF3F3B3FBF9F3AD
:103FB00009FB13831B013233B3FBF9F303F0F00861
:103FC000FFF71EF9626868439200B0FBF2FAFFF750
:103FD00017F9636868439B00B0FBF3F3B3FBF9F395
:103FE00009FB13A31B013233B3FBF9F303F00F03F7
:103FF00043EA080383E7FFF7F3F8676819254FF0F2
:10400000640905FB00F3BF00B3FBF7F3B3FBF9F35F
:104010001F01FFF7E5F8636868439B00B0FBF3F806
:10402000FFF7DEF8636868439B00B0FBF3F3B3FB74
:10403000F9F309FB13831B013233B3FBF9F303F0EC
:10404000F008FFF7CDF8626868439200B0FBF2FA1F
:10405000FFF7C6F8BDE700BF0010014000140140A3
:1040600010B5044640B390F8393003F0FF021BB995
:1040700080F83820FDF762FF2268242384F8393065
:10408000D36823F40053D3602046FFF7CFFE2368A4
:104090001A6922F490421A615A6922F02A025A617E
:1040A000DA6842F40052DA6000202023E06384F8EA
:1040B000393084F83A3010BD012010BD38B50446BF
:1040C000134694F83920202A2AD139B333B394F80F
:1040D0003820012A24D0012284F83820206BE38480
:1040E00000252122E56384F839200E4AA384216249
:1040F000C2630D4A02640D4AC26422680565043237
:10410000FEF7C0FB23686FF040021A605A6984F81A
:10411000385042F080025A61284638BD012038BD2F
:10412000022038BD3341000861410008E341000826
:10413000704708B50368826B1B6813F480730AD15B
:10414000D38413685A6922F080025A61DA6842F017
:104150004002DA6008BD1046FFF7EAFF08BD70476D
:1041600008B5806BFFF7FBFF08BD704790F83A3049
:10417000222B10B532D1836801690268B3F5805FE4
:10418000836A1FD15268C9B9C2F3080223F8022B0F
:104190008362C48D013CA4B2C4856CB90368DA683B
:1041A00022F49072DA605A6922F001025A612023E7
:1041B00080F83A30FFF7D9FF002010BDD2B223F8C3
:1041C000012BE5E721B9591C526881621A70E0E7BA
:1041D0005268591C816202F07F02F7E7022010BD8D
:1041E0007047816B08B50B685A6991F8390021282E
:1041F0000AD1120608D50022CA84DA6822F0C00269
:10420000DA60202281F839205B6991F83A20222A6D
:1042100006D15B0604D50023CB850846FFF7F8FDE1
:10422000CB6B43F01003CB630846FFF7D9FF08BD03
:1042300003681A68D96870B5160704465D6907D126
:1042400096065AD58D0658D5BDE87040FFF78EBF4B
:1042500015F0010502D111F4907F4ED0D30705D59A
:10426000CE0542BFE36B43F00103E363500704D57F
:104270001DB1E36B43F00203E363930704D51DB163
:10428000E36B43F00403E363160704D51DB1E36B4E
:1042900043F00803E363E36B002B66D0950604D577
:1042A000880602D52046FFF761FF23685D69E26B4F
:1042B0001107204602D415F040051AD0FFF7A8FDDB
:1042C00023685A69520610D55A69606B22F0400281
:1042D0005A6150B1254B0365FEF712FB002844D00C
:1042E000606BBDE87040036D18472046FFF778FF0C
:1042F00070BDFFF775FFE56370BD160627D50D0687
:1043000025D594F83920212A2FD1A268B2F5805FF3
:10431000226A17D11188C1F308015960216979B95E
:1043200002322262E28C013A92B2E284EAB9DA689D
:1043300022F08002DA60DA6842F04002DA6070BD92
:104340000132EEE7511C216212785A60EAE750060A
:104350000BD54A0609D5DA6822F04002DA6020233C
:1043600084F839302046FFF7E3FE70BD7143000842
:1043700008B5806B0023C385C384FFF731FF08BDF8
:104380006422C280054A0023012103701170044A8F
:104390004380838043701370704700BFE542002064
:1043A000E4420020000000002DE9F041A04D2DED79
:1043B000028B2B78013B82B0052B00F2D182DFE823
:1043C00013F006007800CC005B01BC011D02994E81
:1043D000994CD6ED007A94ED057AB4EE677AF1EE59
:1043E00010FA36D0F5EE407AF1EE10FA0BD100203B
:1043F000FCF780FE4FF6A063002100938F4A102344
:104400000846FCF789FE94ED057A8D48F2EE047AB1
:1044100067EE277A0A22FDEEE77A17EE903AFDEE74
:10442000C77A93FBF2F102FB113317EE902A85490C
:1044300002F01CFE00212020FCF79CFE4FF6FF73CB
:1044400000937F4A102320210020FCF765FE63695A
:1044500033607D4B5B7853B16069FCF775F870A3EE
:10446000D3E90023FBF712FFFCF79AFB6061774B5F
:104470005B7853B16069FCF767F869A3D3E900235F
:10448000FBF702FFFCF78CFB6061714B5B78002B44
:1044900000F066826F4B01221A7000232B70654B6F
:1044A00000221A6002B0BDEC028BBDE8F04102F0C0
:1044B00071B9614E5F4C737894ED007A07EE903AD3
:1044C000F8EEE77AF4EE477AF1EE10FA37D0B5EE6F
:1044D000407AF1EE10FA12D10020FCF70BFE4FF6F5
:1044E000A0670021084610235B4A0097FCF714FEE2
:1044F00010230097594A19460020FCF70DFE7278E8
:1045000057494F4802F0B2FD4FF6FF7700212020B7
:10451000FCF730FE10234A4A009720210020FCF7C8
:10452000FBFD2021102300974E4A0846FCF7F4FDBE
:10453000737807EE903AF8EE677AC4ED007A424B52
:104540005B7813B1737801337370404B5B78002B49
:104550009BD07378013B737097E7364E424CD6ED93
:10456000007A94ED027AB4EE677AF1EE10FA36D062
:10457000F5EE407AF1EE10FA0BD10020FCF7BAFD0F
:104580004FF6A06300210093384A10230846FCF739
:10459000C3FD94ED027ADFED367A294867EE277A7B
:1045A0006422FDEEE77A17EE903AFDEEC77A93FBB0
:1045B000F2F102FB113317EE902A2E4902F056FD5C
:1045C00000212020FCF7D6FD4FF6FF7300931C4A14
:1045D000102320210020FCF79FFDA36833601A4BB5
:1045E0005B7853B1A068FBF7AFFF0FA3D3E90023BB
:1045F000FBF74CFEFCF7D4FAA060144B5B78002B61
:104600003FF443AFA068FBF79FFF07A3D3E9002364
:10461000FBF73AFEFCF7C4FAA06036E7AFF3008080
:104620009A9999999999B93F7B14AE47E17A843F59
:10463000E442002094000020743F00205B900008BA
:10464000E642002065900008EC3F0020B03F0020CB
:1046500016400020E5420020729000087D9000087E
:10466000879000088E900008503F0020949000082A
:104670000000C8429C900008BF4EC04CD6ED007AA6
:1046800094ED037AB4EE677AF1EE10FA36D0F5EED7
:10469000407AF1EE10FA0BD10020FCF72BFD4FF61B
:1046A000A06300210093B64A10230846FCF734FDAE
:1046B00094ED037ADFEDB37AB34867EE277A64228C
:1046C000FDEEE77A17EE903AFDEEC77A93FBF2F132
:1046D00002FB113317EE902AAC4902F0C7FC00210F
:1046E0002020FCF747FD4FF6FF730093A64A1023E6
:1046F00020210020FCF710FDE3683360A44B5B78B9
:1047000053B1E068FBF720FF99A3D3E90023FBF73F
:10471000BDFDFCF745FAE0609E4B5B78002B3FF453
:10472000B4AEE068FBF710FF91A3D3E90023FBF7D9
:10473000ABFDFCF735FAE060A7E68F4E8F4CD6ED67
:10474000007A94ED047AB4EE677AF1EE10FA36D07E
:10475000F5EE407AF1EE10FA0BD10020FCF7CAFC1E
:104760004FF6A063002100938B4A10230846FCF704
:10477000D3FC94ED047ADFED837A834867EE277AE1
:104780006422FDEEE77A17EE903AFDEEC77A93FBCE
:10479000F2F102FB113317EE902A7C4902F066FC1D
:1047A00000212020FCF7E6FC4FF6FF730093764AC9
:1047B000102320210020FCF7AFFC23693360744BE9
:1047C0005B7853B12069FBF7BFFE69A3D3E90023EF
:1047D000FBF75CFDFCF7E4F920616E4B5B78002B86
:1047E0003FF453AE2069FBF7AFFE61A3D3E900238A
:1047F000FBF74AFDFCF7D4F9206146E6674F3B78AA
:10480000002B00F0A4805C4CD4ED007AF5EE407AE9
:10481000F1EE10FA0ED10020FCF76CFC4FF6A0630D
:10482000002100935E4A10230846FCF775FC4FF008
:104830007E532360DFF894815A49D8ED017A5248BB
:10484000FDEEE77A4FF6FF7617EE902A02F00EFCA7
:10485000002104461020FCF7A5FC04EB44040C23C3
:10486000494A009610210020FCF756FC60000C23FA
:104870004D4A0096102100F0FE00FCF74DFC98ED2B
:10488000047A4A4BD8F804201A60B2EE048A67EE24
:10489000087A0A24FDEEE77A45493B4817EE903A3C
:1048A000FDEEC77A93FBF4F204FB123317EE902A65
:1048B00002F0DCFB00211C20FCF774FC0C23324AC4
:1048C00000961C210020FCF727FC3A4B3A4993ED57
:1048D000047A2D4867EE087AFDEEE77A17EE903AF3
:1048E000FDEEC77A93FBF4F204FB123317EE902A25
:1048F00002F0BCFB00212820FCF754FC0C23224AC8
:10490000009628210020FCF707FC2C4B2C49D3ED06
:10491000047A1D4827EE888AFDEEE77ABDEEC87A54
:1049200017EE103A93FBF4F204FB123317EE902AC1
:1049300002F09CFB00213420FCF734FC0C23009691
:10494000114A34210020FCF7E7FB00233B701D4B8C
:104950005B782BB11C4B01221A7000232B70A1E550
:1049600002B0BDEC028BBDE8F08100BFAFF3008068
:104970007B14AE47E17A843F94000020503F002032
:10498000A79000080000C842E6420020AF9000084F
:10499000EC3F0020B03F0020B990000890000020BC
:1049A000C1900008CD900008909000089800002069
:1049B000D9900008C43F0020EA900008083F00207A
:1049C000F890000816400020E5420020743F0020C7
:1049D00010B5174C237843B1637833B1154B1B786E
:1049E0000BB101F0D3FE00236370134C237843B165
:1049F000637833B10F4B1B780BB101F061FE0023DC
:104A000063700E4C237843B1637833B1094B1B7844
:104A10000BB101F085FE00236370094C23782BB1A4
:104A200063781BB101F0B6FE0023637010BD00BFB8
:104A300016400020E5420020EC3F0020B03F00205F
:104A40001C3F0020027861B1B2B94388C188994205
:104A500037BF012301330370437024BF438082803A
:104A60007047012A08D18388C2889A4201D2017016
:104A70007047013383804180704708B500F01EFF06
:104A8000002008BD30B5B0F90840028A0B4690E816
:104A9000220085B0842C14BF0334002403A80190A5
:104AA0000094284600F03AFE01280CBF039800202D
:104AB00005B030BD08B5002808BF012001F056F848
:104AC000002008BD07B503680093013913464A4228
:104AD0004A410348012101F0CDFA03B05DF804FB1F
:104AE000A08F000808B501F0A3F9012803D0BDE8A4
:104AF000084000F0EFB908BD10B50F4B1A688242AC
:104B000018D35C681919884201BF41681846091911
:104B10005960446801198A4207D1084909688A42E4
:104B20001FBF51681268091941609842026018BF9E
:104B3000186010BD1346E1E7B83C0020A800002033
:104B40002DE9F041044600F0F9FE3E493E4D0B6868
:104B50000BBB3E4A56071FBFD01D20F0070002F5D1
:104B600070531B1A14BF02464FF470531344083B92
:104B700023F00703364E0B600020706032605860EF
:104B80001860981A1360334B50601860324B1860ED
:104B90004FF000432B602F68274216D1002C41D0E4
:104BA00004F1080358071CBF23F00703083363B15F
:104BB000294A1668B342904607D8254A156868689E
:104BC000834204D809688D4207D100242AE02C686A
:104BD000002CF7D02A462546F1E7296814681160B1
:104BE000C21A102A0FD9E818410708D04FF0500315
:104BF00083F31188BFF36F8FBFF34F8FFEE74260DF
:104C00006B60FFF779FF13496B680868F61A1F435A
:104C100086424FF00003C8F8006038BF0E600834C9
:104C20006F602B6000F02AFF630708D04FF050033D
:104C300083F31188BFF36F8FBFF34F8FFEE72046DA
:104C4000BDE8F081A8000020AC3C0020AC000020B2
:104C5000B83C0020B43C0020B03C002010B5044615
:104C600070B3184A50F8043C1268134208D14FF050
:104C7000500383F31188BFF36F8FBFF34F8FFEE7AD
:104C800050F8081C41B14FF0500383F31188BFF373
:104C90006F8FBFF34F8FFEE723EA020340F8043C17
:104CA00000F04CFE084A54F8043C1168A4F10800D6
:104CB0000B441360FFF720FFBDE8104000F0DEBE9C
:104CC00010BD00BFAC3C0020B03C002000F1080348
:104CD00043604FF0FF32C3600361002382600360D2
:104CE000704700230361704743684B609A688A608D
:104CF0009A685160996003680861013303607047E6
:104D00000A68531C30B50AD103695A684A60916039
:104D10008B605960036808610133036030BD00F1A6
:104D200008035C682568AA42EFD32346F9E7416887
:104D3000826803698A60826851605968884208BF46
:104D40005A6000220261186801381860704700003C
:104D50000A4B1B68013308D04FF0500383F31188CE
:104D6000BFF36F8FBFF34F8FFEE74FF0500383F316
:104D70001188BFF36F8FBFF34F8FFEE7080000204D
:104D800006480068006880F3088862B661B6BFF321
:104D90004F8FBFF36F8F00DF00BF000008ED00E012
:104DA000DFF80C00016841F47001016070470000F9
:104DB00088ED00E04FF0807340F8043C074B40F86A
:104DC0000C3C21F001016FF0020340F8081C40F890
:104DD000202C40F8243C4438704700BF514D000857
:104DE000074B19680868B0E8F04F80F30988BFF3F3
:104DF0006F8F4FF0000080F311887047AFF3008091
:104E0000C83C00204FF0500383F31188BFF36F8F2D
:104E1000BFF34F8F0A4A13680133012B13600DD182
:104E2000084B1B6813F0FF0F08D04FF0500383F3BB
:104E30001188BFF36F8FBFF34F8FFEE7704700BF3E
:104E40000800002004ED00E0084A136843B94FF061
:104E5000500383F31188BFF36F8FBFF34F8FFEE7CB
:104E6000013B13600BB983F31188704708000020E1
:104E7000EFF30980BFF36F8F154B1A681EF0100F08
:104E800008BF20ED108A20E9F04F10604DF8043D76
:104E90004FF0500080F31188BFF34F8FBFF36F8F37
:104EA00000F0C2FE4FF0000080F3118808BC1968C2
:104EB0000868B0E8F04F1EF0100F08BFB0EC108A81
:104EC00080F30988BFF36F8F704700BFAFF3008096
:104ED000C83C002008B54FF0500383F31188BFF39E
:104EE0006F8FBFF34F8F00F037FD18B1034B4FF0BA
:104EF00080521A60002383F3118808BD04ED00E09E
:104F0000064B4FF47A721B68B3FBF2F3044A013B81
:104F10001360044B07221A60704700BF0000002096
:104F200014E000E010E000E0314B324A13B519689C
:104F3000914208D14FF0500383F31188BFF36F8F74
:104F4000BFF34F8FFEE71A682B4B9A4208D14FF000
:104F5000500383F31188BFF36F8FBFF34F8FFEE7CA
:104F6000264B1A78D2B20192FF221A701B78244A7B
:104F7000DBB28DF803309DF8033003F0500313705B
:104F8000204B07221A6000219DF80300000602F161
:104F9000FF3423D401B11A601A68120202F4E062ED
:104FA0001A60019B154ADBB21370174B1A6842F462
:104FB00070021A601A6842F070421A60FFF7A0FF90
:104FC000124B00221A60FFF7EBFE114A136843F000
:104FD00040431360FFF7D4FEFFF7BAFE9DF80320AD
:104FE0005200D2B28DF8032001212246CCE700BF47
:104FF00000ED00E071C20F4170C20F4100E400E01B
:10500000C03C0020C43C002020ED00E0080000204F
:1050100034EF00E0EFF305830F2B0ED9104A9B5CB1
:10502000104A12789A4208D94FF0500383F311883E
:10503000BFF36F8FBFF34F8FFEE70B4B0B4A1B681D
:10504000126803F4E063934208D94FF0500383F3EE
:105050001188BFF36F8FBFF34F8FFEE7704700BF1C
:10506000F0E300E0C03C00200CED00E0C43C002078
:1050700070B51546026C866B044642B905689DB949
:10508000406800F02BFF65600136A66370BD6DB906
:10509000806801F07BFFA368226C13446268A36000
:1050A000934201D32368A3600020EDE7C06801F0BC
:1050B0006DFF236CE26821685B421A448A42E26019
:1050C0003EBF62689B18E360022DEDD10EB1013E38
:1050D000EAE73046D8E7034610B41A6C084662B1D6
:1050E000D9685C681144A142D96024BF1968D960AD
:1050F000D9685DF8044B01F049BF5DF8044B704777
:1051000070B50446FFF77EFE94F8455004F124067E
:105110006DB2002D14DCFF2384F84530FFF794FEB8
:10512000FFF770FE94F8445004F110066DB2002DA4
:1051300012DCFF2384F84430BDE87040FFF784BEE2
:10514000636A002BE7D0304600F0E0FD08B100F0C4
:1051500069FE013D6DB2DCE72369002BE9D03046E2
:1051600000F0D4FD08B100F05DFE013D6DB2DEE758
:1051700038B50D46044640B94FF0500383F311880B
:10518000BFF36F8FBFF34F8FFEE7FFF73BFE206C3F
:10519000E36B2268A2604343D1181B1A1344616079
:1051A000E3600021FF23A16384F8443084F8453094
:1051B00095B9236963B104F1100000F0A7FD38B17F
:1051C0000A4B4FF080521A60BFF34F8FBFF36F8FBF
:1051D000FFF73AFE012038BD04F11000FFF776FD1D
:1051E00004F12400FFF772FDF2E700BF04ED00E0D8
:1051F00070B50D46064640B94FF0500383F3118851
:10520000BFF36F8FBFF34F8FFEE748434830FFF780
:1052100097FC044638B145B92060E6632564012156
:105220002046FFF7A5FF204670BD00F1480303604C
:10523000F3E700002DE9FF47894601921F46044627
:1052400040B94FF0500383F31188BFF36F8FBFF362
:105250004F8FFEE7002940F08880036C002B00F0A0
:1052600084804FF0500383F31188BFF36F8FBFF337
:105270004F8FFEE7019E002E00F082804FF050031A
:1052800083F31188BFF36F8FBFF34F8FFEE7019D4C
:105290001DB9FFF7D9FD002058E016B902A800F0AB
:1052A00077FDFFF7D1FD00F049FBFFF7ABFD94F868
:1052B0004430FF2B08BF84F8448094F84530FF2B1E
:1052C00008BF84F84580FFF7BFFD01A902A800F0E0
:1052D0006FFD002843D1FFF795FDA66BE56BFFF747
:1052E000B3FDAE4235D1019904F1100000F0D6FCB7
:1052F0002046FFF705FF00F0C1FB38B94FF080539F
:10530000CAF80030BFF34F8FBFF36F8F0126FFF74E
:1053100079FDA26BE36B9A4201D3022FB7D13A46D3
:1053200049462046FFF7A4FE636A1BB104F124003E
:1053300000F0ECFC38B1194B4FF080521A60BFF30B
:105340004F8FBFF36F8FFFF77FFD012004B0BDE8E3
:10535000F0872046FFF7D4FE00F090FBD6E720460A
:10536000FFF7CEFE00F08AFB95E7022F02D1E36B38
:10537000012B0AD100F05CFD00283FF47BAF002632
:105380004FF00008DFF814A0C1E74FF0500383F39B
:105390001188BFF36F8FBFF34F8FFEE704ED00E07E
:1053A0002DE9F843884691461F46044640B94FF020
:1053B000500383F31188BFF36F8FBFF34F8FFEE766
:1053C00009BB036CFBB14FF0500383F31188BFF3AB
:1053D0006F8FBFF34F8FFEE704F1240000F096FCBF
:1053E000002834D0B9F1000F31D00120C9F80000F5
:1053F00086F31188BDE8F88301356DB284F8455015
:1054000025E00020F4E7022F02D1E36B012B20D12D
:10541000FFF700FEEFF311864FF0500383F311887E
:10542000BFF36F8FBFF34F8FA26BE36B9A4201D331
:10543000022FE6D194F845503A466DB241462046D7
:10544000FFF716FE6B1CD7D1636A002BC4D1012075
:10545000CEE74FF0500383F31188BFF36F8FBFF394
:105460004F8FFEE72DE9FF47884601929946044693
:1054700040B94FF0500383F31188BFF36F8FBFF330
:105480004F8FFEE7002940F0A580036C002B00F051
:10549000A1804FF0500383F31188BFF36F8FBFF3E8
:1054A0004F8FFEE7019E002E00F09A804FF05003D0
:1054B00083F31188BFF36F8FBFF34F8FFEE7636AEB
:1054C000E660002B6DD004F124005FE0019D1DB962
:1054D000FFF7BAFC284667E016B902A800F058FCAE
:1054E000FFF7B2FC00F02AFAFFF78CFC94F8443086
:1054F000FF2B08BF84F8447094F84530FF2B08BF99
:1055000084F84570FFF7A0FC01A902A800F050FC48
:10551000002852D1FFF776FCA56BFFF795FC002D14
:1055200045D1236833B9FFF76DFC606800F090FC4B
:10553000FFF78AFC019904F1240000F0AFFB20463C
:10554000FFF7DEFD00F09AFA38B94FF08053CAF841
:105550000030BFF34F8FBFF36F8F0126FFF752FC70
:10556000A56B002DB2D041462046E668FFF7B3FD9B
:10557000B9F1000FA3D12368013DA56313B900F071
:10558000FDFC6060236963B104F1100000F0BEFB14
:1055900038B1154B4FF080521A60BFF34F8FBFF3F5
:1055A0006F8FFFF751FC012004B0BDE8F087204663
:1055B000FFF7A6FD00F062FACFE72046FFF7A0FD57
:1055C00000F05CFAFFF71EFCA56BFFF73DFC002D19
:1055D000C3D17FE700F02CFC00283FF463AF002626
:1055E0000027DFF804A0B9E704ED00E030B5074A72
:1055F000002352F8335002EBC3041DB942F83310B4
:10560000606030BD0133082BF3D130BDF84200207B
:1056100070B504460D461646FFF7F4FB94F8443087
:10562000FF2B04BF002384F8443094F84530FF2B4F
:1056300004BF002384F84530FFF706FCA36B2BB9A9
:105640003246294604F1240000F042FB2046BDE822
:105650007040FFF755BD0000064A13681968064BF5
:1056600019B94FF0FF321A6070471268D268D268D9
:105670005268F8E7CC3C0020A43D0020F8B51B4B55
:105680001B4E1D680446306804300F46FFF74FFB81
:10569000334640B93168174EC96A326801208840E4
:1056A00022EA00023260621C07D137B11968124841
:1056B0000431BDE8F840FFF717BB2C441A68A54237
:1056C000546007D90D4A10681968BDE8F8400431E4
:1056D000FFF716BB0A4A106819680431FFF710FB80
:1056E000084B1A68944238BF1C60F8BDEC3D00209E
:1056F000C83C0020743D0020C43D0020D03C002068
:10570000CC3C0020A43D00204FF0500383F31188CF
:10571000BFF36F8FBFF34F8FFEE700002DE9F84F07
:105720004FEA820A804650460F4699460B9EFFF785
:1057300007FA0546002800F096805420FFF700FA8B
:105740000446002800F08C80AAF1040A0563554441
:105750007B1E25F0070A00F134020F37597802F852
:10576000011B13F8011F09B1BB42F7D10A9D062D99
:1057700028BF06254FF0000B271DE56265643846FB
:1057800084F843B0C4F848B0FFF7ABFAC5F1070599
:1057900004F11800FFF7A5FAC4F84CB02461A56124
:1057A000646284F850B04A4641465046FFF702FB17
:1057B000206006B13460FFF725FB324B324E1A6889
:1057C000DFF8F08001321A603568002D4ED1346068
:1057D0001B68012B1DD108EB05001435FFF776FA85
:1057E0008C2DF8D1DFF8D090284D4846FFF76EFA9F
:1057F0002846FFF76BFA2648FFF768FA2548FFF7B7
:1058000065FA2548FFF762FA244BC3F80090244B51
:105810001D60244A24491368086801331360E26A52
:10582000012505FA02F3034314200B6000FB0280FC
:105830003946FFF759FAFFF707FB1C4B1B6863B1AA
:105840003368DA6AE36A9A4207D2194B4FF0805202
:105850001A60BFF34F8FBFF36F8F2846BDE8F88FF4
:105860002846FFF7FBF94FF0FF35F6E70F4B1B68B3
:10587000002BCED13368DA6AE36A9A4298BF34606B
:10588000C7E700BF603D0020C83C00208C3D0020E1
:10589000AC3D0020D83D0020C43D0020CC3C002081
:1058A000D03C0020703D0020743D0020C03D002011
:1058B00004ED00E0D43C0020783D002013B5194BE6
:1058C0000193002400942346802217491748FFF7CC
:1058D00025FF012818D100F0A7FB012814D14FF0B3
:1058E000500383F31188BFF36F8FBFF34F8F104BBB
:1058F0004FF0FF321A600F4B18600F4B1C6002B064
:10590000BDE81040FFF710BB013008D14FF0500345
:1059100083F31188BFF36F8FBFF34F8FFEE702B0A1
:1059200010BD00BFA03D002006910008B55B000837
:10593000A43D0020C03D0020EC3D0020024A136839
:1059400001331360704700BF6C3D0020014B1868A5
:10595000704700BFEC3D00202DE9F84F3C4B1B6821
:10596000002B53D13B4B1C6801341C60BCB93A4B33
:105970001A68126842B14FF0500383F31188BFF3E5
:105980006F8FBFF34F8FFEE7344A196810681860B5
:105990001160334A136801331360FFF75DFE314D28
:1059A000314F2B689C424FF0000B3ED3DFF8A880AC
:1059B000DFF8C490D8F80020126872BB4FF0FF32B5
:1059C0002A6032E006F1040A5046FFF7B0F9B16AE6
:1059D00019B106F11800FFF7AAF9F06AD9F80030FA
:1059E000012202FA00F11943204BC9F800104FF0D0
:1059F000140E51460EFB0030FFF776F93868F16A55
:105A0000C26A914228BF4FF0010BD3E7184A1368CE
:105A1000013313604FF0000B11E0D8F80020D2687A
:105A2000D66871688C42CDD229603A680F4BD16A32
:105A300014224A439A58022A28BF4FF0010B0D4AFC
:105A40001268002A18BF4FF0010B5846BDE8F88FC6
:105A50006C3D0020EC3D0020CC3C0020D03C0020E0
:105A6000A83D0020A43D0020C83C0020D43C0020DC
:105A7000683D0020F03D0020743D00202DE9F843F2
:105A8000314C236843B94FF0500383F31188BFF3BF
:105A90006F8FBFF34F8FFEE7FFF7B4F92368013B29
:105AA000236024682CB10024FFF7CEF92046BDE81E
:105AB000F883264B1B68002BF5D0DFF8A890244F05
:105AC000DFF8A480D9F80030E3B90CB1FFF7C4FDCA
:105AD000204D2C6844B1204E0127FFF73DFF00B157
:105AE0003760013CF9D12C601B4B1B68002BDAD0CE
:105AF0001A4B4FF080521A60BFF34F8FBFF36F8F76
:105B00000124D1E7D9F80C30DC68261D04F1180017
:105B1000FFF70DF93046FFF70AF9E26A3968012507
:105B200005FA02F314200B4300FB028031463B6070
:105B3000FFF7DAF80A4BE26A1B68DB6A9A4224BF75
:105B4000054B1D60BEE700BF6C3D0020603D00209E
:105B5000743D0020683D0020F03D002004ED00E091
:105B6000C83C0020AC3D0020D43C002008B540B922
:105B70000E4B4FF080521A60BFF34F8FBFF36F8F01
:105B800008BD0B4B196841B14FF0500383F31188E6
:105B9000BFF36F8FBFF34F8FFEE7FFF7CFFEFFF727
:105BA0006DFDFFF76BFF0028E2D008BD04ED00E0BB
:105BB0006C3D002008B5174E174C236863B9174B8E
:105BC0001B68012BF8D9164B4FF080521A60BFF3B7
:105BD0004F8FBFF36F8FEFE7FFF7B0FE3568FFF72A
:105BE0004DFF002DE9D0FFF70DF9F368DD68281DA2
:105BF000FFF79DF80B4A1368013B13602368013BD4
:105C00002360FFF721F9286BFFF728F82846FFF7F4
:105C100025F8D2E7D83D0020643D0020D43C002088
:105C200004ED00E0603D0020174B1A68174B10B5DB
:105C300012B101221A6010BD1A60154B1B68B3FA2D
:105C400083F3DBB2C3F11F03142212495A438818AD
:105C50008C5844B94FF0500383F31188BFF36F8F12
:105C6000BFF34F8FFEE744680832646844600A441B
:105C7000944204BF62684260142202FB03135B6813
:105C8000DA68054BD6E700BF6C3D0020F03D0020F0
:105C9000743D0020D43C0020C83C002010B50C46C8
:105CA00040B94FF0500383F31188BFF36F8FBFF3F8
:105CB0004F8FFEE7054B19681831FFF721F8204692
:105CC0000121BDE81040FFF7D9BC00BFC83C00204F
:105CD00038B50D46144640B94FF0500383F3118890
:105CE000BFF36F8FBFF34F8FFEE7074B1968183173
:105CF000FEF7FAFF002C21460CBF28464FF0FF307C
:105D0000BDE83840FFF7BABCC83C002038B5C368CE
:105D1000DC6844B94FF0500383F31188BFF36F8FF1
:105D2000BFF34F8FFEE704F118052846FEF7FFFF8B
:105D3000114B1B68E3B9251D2846FEF7F8FF0F49F4
:105D4000E26A08680123934003430B600C4B142064
:105D5000294600FB0230FEF7C7FF0A4BE26A1B68C8
:105D6000DB6A9A4283BF084B01201860002038BDCF
:105D700029460648EFE700BF6C3D0020743D002037
:105D8000D43C0020C83C0020F03D0020AC3D002069
:105D900008B508B9FFF7B8FC034B1B680360034B59
:105DA0001B68436008BD00BFA83D0020EC3D0020FB
:105DB00038B50D46044640B94FF0500383F31188BF
:105DC000BFF36F8FBFF34F8FFEE741B94FF0500322
:105DD00083F31188BFF36F8FBFF34F8FFEE7FFF799
:105DE00011F80E4B19682B685A1C10D00C4A206809
:105DF00012689042626801D091420DD2881A8342A3
:105E00000AD95B1A13442B602046FFF7C1FF002418
:105E1000FFF71AF8204638BD0124F9E7EC3D0020D1
:105E2000A83D0020014B01221A607047F03D002080
:105E3000054B1B6833B1054B1B68002B0CBF0220C0
:105E40000020704701207047C03D00206C3D0020BD
:105E50002DE9F0410446002838D01D4DC36A2A6858
:105E6000D26A934232D282691A4E002AA1BF2A68AE
:105E7000D26AC2F1070282611427426907FB0363F9
:105E80009A4220D100F104084046FEF750FF124A22
:105E900048B9E06A4743F3592BB91368012181409F
:105EA00023EA010313602B681168D86AE0620123BA
:105EB00083400B4313601423414603FB0060BDE89D
:105EC000F041FEF711BF2B68DB6AC362BDE8F081C9
:105ED000C83C0020D43C0020743D0020F8B50446A6
:105EE00008B90020F8BD224B1B68984208D04FF03B
:105EF000500383F31188BFF36F8FBFF34F8FFEE71B
:105F0000836C43B94FF0500383F31188BFF36F8F55
:105F1000BFF34F8FFEE7C16A426C013B914283643D
:105F2000DFD0002BDDD1051D2846FEF700FF114E06
:105F3000114A50B9E76A1421794373582BB9136891
:105F40000120B84023EA00031360636CE362C3F1ED
:105F50000701A1611168012404FA03F008431060ED
:105F6000142000FB03602946FEF7BEFE2046F8BD64
:105F7000C83C0020D43C0020743D0020044B1A682B
:105F80001AB119688A6C01328A641868704700BFB8
:105F9000C83C0020F8B50F4CFEF734FF2568ADB9BA
:105FA0000D4F0E4E3846FEF791FE3046FEF78EFE40
:105FB0000B4B1F600B4B2A460C210A201E60FFF77B
:105FC00017F9206010B10849FFF710FBBDE8F84051
:105FD000FEF73ABF283E0020FC3D0020103E002086
:105FE000F43D0020F83D00200B910008914208B5D7
:105FF000416000610AD8D21A83699A420DD2084BD7
:10600000011D1868FEF77CFE002008BD9A4201D2EF
:10601000994202D2011D034BF3E7012008BD00BFE6
:10602000F83D0020F43D002007B5FFF7B3FF0D4B0E
:106030001B685BB10C4B0193022300934FF48072F9
:1060400000230A490A48FFF769FB40B94FF05003A3
:1060500083F31188BFF36F8FBFF34F8FFEE703B059
:106060005DF804FB283E00202C3E00201091000823
:10607000916100082DE9F041804628200D46174621
:106080001E46FEF75DFD0446A8B145B94FF050032A
:1060900083F31188BFF36F8FBFF34F8FFEE7FFF7D6
:1060A00079FF069BC4F80080A561E7612662636200
:1060B000201DFEF716FE2046BDE8F08130B51546DE
:1060C00085B01A46034640B94FF0500383F3118858
:1060D000BFF36F8FBFF34F8FFEE70D4C206880B189
:1060E00005290191029503930DDCFFF7A1FE002322
:1060F000022808BF089A206818BF1A4601A9FFF7AE
:1061000099F805B030BD002301A9FFF749F9F8E778
:10611000283E00202DE9F3411B4D4FF000082B686D
:106120001A6832B9194A11682960136002B0BDE8D3
:10613000F081DB68DC681E68271D3846FEF7F7FD36
:10614000636A20469847E369012BE8D1A369334489
:106150009E4206D26360246139462868FEF7D0FD6E
:10616000DDE70023CDF80080324619462046FFF7D0
:10617000A5FF0028D3D14FF0500383F31188BFF35C
:106180006F8FBFF34F8FFEE7F43D0020F83D0020F6
:106190002DE9F04F6C4DDFF8C08189B02F462B6898
:1061A000D3F800B0BBF1000F42D0DB68D3F8009009
:1061B000FFF7C4FBFFF7CAFB644B1A6890428246A4
:1061C0001E4637D20393FFF7A5FF039B0124C3F8B4
:1061D00000A0002C7ED1BBF1000F60D0D14577D854
:1061E000FFF74CFC3B68DB68D3F80CB00BF1040004
:1061F000FEF79DFDDBF81C30012B1DD1DBF81810DC
:106200004B46524649445846FFF7F0FEA0B1009471
:1062100023464A4621465846FFF750FF60B94FF0E3
:10622000500383F31188BFF36F8FBFF34F8FFEE7E7
:10623000D946BDE70024CAE7DBF824305846984722
:10624000DFF81091D9F8000000231A4605A9FFF7DE
:1062500009F90028A3D0059B002BF3DB079C636999
:1062600013B1201DFEF763FDFFF770FB3368984202
:10627000834601D2FFF74EFF059AC6F800B0092AFF
:10628000E0D80123934013F4047A4AD113F0C70FE6
:1062900023D19B06D6D52046FEF7E0FCD2E72C4B57
:1062A0001B681A68B2FA82F252092A4BA9EB0A015A
:1062B0001868FFF7ADF9FFF7E1FB0028C0D14FF0F8
:1062C0008053C8F80030BFF34F8FBFF36F8FB7E72D
:1062D0002246EAE7FFF7D2FBB2E7A169069B5A46DE
:1062E00019442046FFF782FE0028ABD0636A20469F
:1062F0009847E369012BA5D1A2690699CDF800A0C2
:106300000A44534651462046FFF7D8FE002899D14B
:106310004FF0500383F31188BFF36F8FBFF34F8F9C
:10632000FEE70699A16141B94FF0500383F311884C
:10633000BFF36F8FBFF34F8FFEE75B465A4659445A
:106340002046FFF753FE7DE7F43D0020243E002069
:10635000F83D0020283E002004ED00E02DE9F84F34
:106360000646304C304D50B1304B1860002323703E
:106370002F4B1B78032B94BF013304232B702D4F1D
:1063800095F9001097F9003099421CDC2278DBB2B5
:106390001A440132521A013322702B7000F007FAAE
:1063A000224BDFF89CA0186800F005FA94F80080F2
:1063B0004FF01009444695F9002094420FDBBDE8E8
:1063C000F84F00F0F7B994F900209A4203DD4A1E15
:1063D00023702A70E2E7002EE0D1BDE8F88F164B5B
:1063E00053F824B04846BBF8041000F0F1F99BF8CC
:1063F00009100B0602D4484600F0F7F95EB1DAF84E
:1064000000108B4507D1484600F0F0F90B4B3C706B
:10641000A4EB08021A70013409F10C03E4B25FFA2C
:1064200083F9C8E7513E0020503E0020343E002052
:10643000384300203A4300203C43002039430020E9
:10644000303E00202DE9F041114A124CDFF84C801B
:1064500094F90070002313700F4A15781E469E466B
:106460005FFA83FC39B9BEF1000F00D0277006B186
:106470001570BDE8F081814208BF5FB248F82C106A
:1064800008BF4FF0010E898A013301266546E7E710
:10649000394300203A430020384300203C43002089
:1064A000744B1B68F7B505460BB100221A70724E8B
:1064B0003378002B00F0C580002D40F097806F4BA3
:1064C00093F900206E4B53F822206E4B1A606D4FEB
:1064D000012D3C683A460DD1A48A04B114606A4B80
:1064E0001B68002B00F0AB801268908803B0BDE8F9
:1064F000F0401847681C01D1248BEEE7002DECD149
:10650000A589A38AA5B1A4883D6029462846FFF73E
:1065100099FF2046FFF722FF5C4B1B68002B00F021
:106520008E803A682946204603B0BDE8F0401847FF
:106530002089010634D456490F68002F30D02346F5
:106540009A8A3ABB1D8A05B1AD882646338B1BBBA0
:10655000504B617A1A7802EB420292001032C0B2BC
:1065600002F0FC02B84731462046FFF76BFFADB999
:106570004948FFF7F3FE454B1B681BB132462146E5
:1065800028469847454B1B68002B58D003B0BDE800
:10659000F04018471346D3E71E46D7E72846E8E7FA
:1065A000002B9BD1258A3DB9337000F000F903B070
:1065B000BDE8F04000F0FEB8298A89B18C881560EA
:1065C0002E46338B73B931462846FFF73BFF5CB943
:1065D0003148FFF7C3FE2D4B1B6883B33246A1E75A
:1065E0001C46ECE71E46ECE72046F2E7022D7FF45E
:1065F0006EAF0024347000F0DAF800F0DBF84FF4EE
:10660000FC630093264A102321462046FAF784FDB6
:106610004FF6FF7510231946224A00952046FAF7D7
:106620007BFD1023204A009520212046FAF774FDB7
:1066300000950C231D4A34212046FAF76DFD03B066
:10664000F0BD022DD5D0002DF9D1194B0D4F1C886E
:106650003C6021462046FFF7F5FE0F48FFF77EFE1F
:106660000A4B1B681BB13A6821462846984701230C
:106670003370E4E74C3E0020443E00203A430020C3
:106680003C430020303E0020403E0020383E0020A9
:106690003C3E00203943002050920008483E002034
:1066A0006B8F0008778F0008828F0008898F0008A1
:1066B0004C920008014B1860704700BF3C3E002020
:1066C00010B5134B1B7813B3124B1B680BB1002290
:1066D0001A7000F09BF8104A104C92F900304BB140
:1066E000013B00201370FFF739FE94F900300BB125
:1066F000013B2370207800EB40008000103000F058
:10670000FC0000F073F8BDE8104000F053B810BD75
:10671000443E00204C3E00203A43002039430020F4
:1067200010B5154B1B7833B3144B1B680BB100220B
:106730001A7000F06BF8124A124992F90030097889
:10674000114C8B420ADA013300201370FFF706FE6A
:1067500094F90030022BDCBF01332370207800EB6A
:1067600040008000103000F0FC0000F03FF8BDE871
:10677000104000F01FB810BD443E00204C3E0020E9
:106780003A43002038430020394300200020FFF71F
:1067900087BE0000034B187808B9FFF781BE0220BE
:1067A000FBE700BF443E00200220FFF779BE002037
:1067B000FAF7A0BC704707B54FF4FC6300210093C3
:1067C000024610230846FAF7A7FC03B05DF804FB65
:1067D00007B54FF6FF7300930A460C23C1B2082099
:1067E000FAF79AFC03B05DF804FB704707B54FF663
:1067F000E0730093C1B20C23034A0020FAF78CFC2B
:1068000003B05DF804FB00BF9992000807B5084B80
:10681000084A197801EB41018900002010310090ED
:106820000C2301F0FC01FAF777FC03B05DF804FBE0
:10683000394300209992000808B5052833D8DFE8CD
:1068400000F0030F161D242BFFF7AEFF164B0020A0
:1068500018700122154B1A70BDE80840FAF74ABCBF
:10686000FFF7A2FF104B002018700222F2E7FFF79B
:106870009BFF0D4B002018700322EBE7FFF794FFFE
:10688000094B002018700422E4E7FFF78DFF064B48
:10689000002018700522DDE7FFF786FF024B00207D
:1068A00018700622D6E708BDE5420020E442002029
:1068B000064A0748002350F8231022F8131001332A
:1068C000052BF8D1034B01221A707047903F00202E
:1068D000F43F002014400020F0B5274F3B78002BF8
:1068E00049D0264E96F800E0BEF1000F43D1244D6A
:1068F000244C2B882448254940F6B73293421CD8B3
:10690000234A666817883E44666044685688344463
:10691000446048689488B3F5FA7F2044486009D2FF
:106920001C48D4884168214441601B4910894A6849
:1069300002444A6001332B80F0BD40F6B8326368F0
:10694000B3FBF2F323814368B3FBF2F303814B689B
:10695000B3FBF2F30B810F4B87F800E05A684FF45A
:10696000FA71B2FBF1F21A810B4A5368B3FBF1F3EF
:10697000138101233370F0BD14400020C03F00207C
:10698000B83F0020C43F0020083F00209C3F00206B
:10699000903F00203C3F0020D83F00200000000036
:1069A0002DE9F047DFF8E0A19AF80030002B00F065
:1069B000C6806F4C6F4D2089F9F7B4FD06460F462F
:1069C00002460B4660A1D1E90001F9F75DFC3246B1
:1069D0003B46F9F737FF41EC100B01F0ADFA00220E
:1069E00051EC100B0023F9F751FC59A3D3E9002314
:1069F000F9F74CFC02460B4657A1D1E90001F9F723
:106A000021FF57A3D3E90023F9F73EFCFAF7C8F8B2
:106A100020612889F9F786FD06460F4602460B4697
:106A200049A1D1E90001F9F72FFC32463B46F9F7BD
:106A300009FF41EC100B01F07FFA002251EC100B22
:106A40000023F9F723FC42A3D3E90023F9F71EFC46
:106A500002460B4640A1D1E90001F9F7F3FE40A33D
:106A6000D3E90023F9F710FCFAF79AF8424F2861AE
:106A70003889424EF9F756FD804602460B46894654
:106A800031A1D1E90001F9F7FFFB42464B46F9F786
:106A9000D9FE41EC100B01F04FFA002251EC100B23
:106AA0000023F9F7F3FB2AA3D3E90023F9F7EEFB60
:106AB00002460B4628A1D1E90001F9F7C3FE28A33D
:106AC000D3E90023F9F7E0FBFAF76AF83861308977
:106AD000DFF8B880F9F726FD23A3D3E90023F9F7FF
:106AE00087FD19A3D3E90023F9F7ACFEFAF758F8AC
:106AF0003061B8F80800F9F715FD1BA3D3E90023AE
:106B0000F9F776FD10A3D3E90023F9F79BFEFAF716
:106B100047F81B4AD5ED047A94ED047AC8F81000C2
:106B200000238AF80030138063606B607B60C8F8D4
:106B30000430736077EEC77A124BC3ED047ABDE878
:106B4000F08700BFAFF300800000000000FEAF4000
:106B500075CC25C293822A400000000000DCAE40C4
:106B60006666666666127140713D0AD7A37007407B
:106B7000C43F0020083F00209C3F0020D83F002059
:106B8000B83F0020743F0020C03F00203C3F002061
:106B900038B5134D134C01224FF480412846FCF7C1
:106BA00057F8E3894FF47A7090FBF3F00138FDF762
:106BB00081FF00224FF480412846FCF749F801206C
:106BC000FDF778FF94F9103094ED007A07EE903AD3
:106BD000F8EEE77A77EE877AC4ED007A38BD00BF29
:106BE000000C0240243F002038B505460B4C60B134
:106BF00000224FF480510A48FCF72AF801236374FD
:106C00000848BDE8384000F029BA01224FF480510D
:106C10000348FCF71DF86574A574F1E7243F0020D4
:106C2000000C02409B920008012810B504460CD1CC
:106C300002464FF400510748FCF70AF8064B1C7453
:106C40000648BDE8104000F009BA431CF8D1002204
:106C5000EFE700BF000C0240243F0020A392000891
:106C600070B51D4CA37C2DED028B054663B9D4EDA8
:106C7000007AFDEEE77A012017EE903A002DA0741D
:106C8000A38019DDFFF7D0FF144E9FED158AB4F9EC
:106C9000043094ED007A2B4407EE903AF8EEE77A50
:106CA000B4EE677AF1EE10FA09D1BDEC028B002048
:106CB000BDE87040FFF798BF4FF0FF30E2E7FFF705
:106CC00067FFD4ED006A94ED027AC6EE877A67EE2C
:106CD000887AC6ED017ADAE7243F0020743F00206D
:106CE0000000C8420F4B00224FF087411A6000227B
:106CF0009A8099605A7419219A740B4AD98101219A
:106D0000197452786421B2FBF1F207EE902AF8EE82
:106D1000E77AB0EE677ABEEECC7A17EE102A9A8246
:106D2000704700BF243F0020743F002038B5194D44
:106D30000120FFF759FFAB7B53BB174C637C3BB380
:106D4000A068F9F701FC0022144BF9F751FCF9F7A0
:106D5000FFFEFFF785FF0023012023606B60FFF734
:106D600043FF6B7894ED027ADFED0D6A07EE903AFF
:106D7000F8EEE77A67EE877A87EEA67AFDEEC77AB5
:106D800017EE900AFFF76CFF637C0BB90123AB731E
:106D900038BD00BF743F0020243F00200000F8BF32
:106DA0000000C842254A1378002B46D0937B002B65
:106DB00043D0234BD2ED047AD2ED056A93ED017AEC
:106DC000D3ED035A76EEE76AD3ED027AC3ED006A9B
:106DD00036EE876A66EEA77A26EE256AF6EE005A48
:106DE00026EE256A36EEC77AD3ED045AC3ED057A4E
:106DF00027EE257A77EE867A83ED077A77EE877A23
:106E000092ED027A83ED066A37EE677ADFED0D7A4E
:106E1000C3ED016AB4EEE77AF1EE10FAB8BFF0EE16
:106E2000477AF5EEC07A0023F1EE10FA137098BF9E
:106E30000023C2ED027A98BF93607047743F002030
:106E4000503F00200000C842264BD3ED017A93ED5D
:106E5000027AF4EE477AF1EE10FA82B040D0224A7C
:106E6000537C002B3CD1D2ED026A9FED206A37EEB5
:106E7000677A012027EE267AC7EE067A92ED007A2D
:106E8000FDEEE77ACDED017ABDF90430938207EE8D
:106E9000903AF8EEE77A77EE877AF4EEE76AF1EE69
:106EA00010FA9FBF77EEE67AFDEEE77A17EE903A9A
:106EB0009382B2F9143007EE903AF8EEE77A77EE63
:106EC000877AF5EEC07AF1EE10FA9FBFB1EE477AFD
:106ED000FDEEC77A17EE903A938202B0FFF784BEB8
:106EE00002B07047743F0020243F00200000C842D9
:106EF0000E4B0F4999603C2201215A7019730022F0
:106F000000214FF07E505A601A615973997358618D
:106F10001970084BDA619A615A615A601A60064A20
:106F20009A60064ADA60064A1A617047743F002088
:106F300000007042503F00209A99993F0AD7233CA5
:106F40009A99993E70B50D4E0D4CA41BA4100025C6
:106F5000A54209D10B4E0C4C01F08EFAA41BA410D3
:106F60000025A54205D170BD56F82530984701355A
:106F7000EEE756F8253098470135F2E74C930008C4
:106F80004C9300084C9300085093000810B5431E22
:106F90000A44914200D110BD11F8014B03F8014F92
:106FA000F7E7000070B50E46054618B183690BB9C6
:106FB00000F032FAAB69AC6813B9284600F02CFA3D
:106FC000234B9C4217D16C68A3891B071DD52369ED
:106FD000DBB1013EA36816F8011F013BA360E9B9CC
:106FE000002B2EDA22460A21284600F063F80130F1
:106FF00011D00A2070BD174B9C4201D1AC68E3E769
:10700000154B9C4208BFEC68DEE72146284600F09D
:10701000A3F80028DDD04FF0FF3070BD002B04DA5C
:10702000A269934206DB0A2904D023685A1C226015
:107030001970CFE72246284600F03CF80130C9D14C
:10704000E9E723680A205A1C2260187070BD00BF4F
:10705000C8920008E8920008A8920008024B014676
:107060001868FFF79FBF00BF0C0000200EB400B5EA
:107070009CB04FF402711DABADF814100290069055
:107080006FF000410A48049107914FF6FF7153F8E1
:10709000042BADF816100068019302A900F0BAFBAA
:1070A000029B00221A701CB05DF804EB03B070471D
:1070B0000C000020F8B50E461446054618B1836949
:1070C0000BB900F0A9F9214B9C422AD16C68A36945
:1070D000A360A3891A072ED5236963B323692068A7
:1070E000C01A6369F6B29842374604DB2146284647
:1070F00000F028F928BBA368013BA36023685A1C51
:1071000022601E7063690130984204D0A389DB07B6
:1071100019D50A2E17D12146284600F013F990B14F
:107120000FE00B4B9C4201D1AC68D0E7094B9C426D
:1071300008BFEC68CBE72146284600F00DF8002890
:10714000CCD04FF0FF373846F8BD00BFC8920008DA
:10715000E8920008A8920008324B70B51D680646F8
:107160000C4625B1AB6913B9284600F055F92E4BF2
:107170009C420FD16C68B4F90C309AB215072CD42C
:10718000D00611D40922326043F04003A3814FF0AE
:10719000FF3070BD254B9C4201D1AC68EBE7244B1E
:1071A0009C4208BFEC68E6E7510712D5616B41B11C
:1071B00004F14403994202D0304600F023FA002340
:1071C0006363A38923F02403A381002363602369FD
:1071D0002360A38943F00803A38123694BB9A389E2
:1071E00003F42073B3F5007F03D02146304600F04E
:1071F000C1F9A28912F001030CD00023A3606369D6
:107200005B42A361236953B9B4F90C3013F08000D9
:10721000BAD170BD920758BF6369A360F2E700203E
:10722000F7E700BF0C000020C8920008E8920008B1
:10723000A89200088A892DE9F041054610070C46FE
:107240005AD44B68002B05DC0B6C002B02DC0020B1
:10725000BDE8F081E66A002EF9D0002312F48052D6
:107260002F682B6033D0606DA3895A0705D56368FA
:10727000C01A636B0BB1236CC01A00230246E66A86
:10728000216A2846B047431CA38906D129681D29D5
:107290004BD82B4ACA40D60747D500226260D90492
:1072A0002269226004D5421C01D12B6803B96065B4
:1072B000616B2F600029CAD004F14403994202D0C7
:1072C000284600F09FF900206063BDE8F081216A44
:1072D00001232846B047411CC6D12B68002BC3D0E0
:1072E0001D2B01D0162B01D12F60B0E7A38943F0ED
:1072F0004003A381BDE8F0810F69002FA7D0930759
:107300000E6808BF4B690F6018BF0023A6EB070883
:107310008B60B8F1000F9ADD43463A46216AA66AAF
:107320002846B047002807DCA38943F04003A38127
:107330004FF0FF30BDE8F0810744A8EB0008E8E714
:107340000100402038B50B6905460C46DBB118B189
:1073500083690BB900F060F80C4B9C4209D16C6852
:10736000B4F90C307BB121462846BDE83840FFF720
:1073700061BF074B9C4201D1AC68F1E7054B9C42D1
:1073800008BFEC68ECE7002038BD00BFC8920008D9
:10739000E8920008A8920008014900F0A9B800BFCF
:1073A00045730008002310B5044603604360836002
:1073B00081814366C281036143618361194608226A
:1073C0005C3000F017F9054B6362054BA362054B77
:1073D000E362054B2462236310BD00BF497D0008B2
:1073E0006B7D0008A37D0008C77D000870B54A1EAC
:1073F000682555430E4605F1740100F051F9044625
:1074000040B1002180E842000C30A06005F1680224
:1074100000F0F0F8204670BD836910B5044633BB18
:107420008364C3640365124B124A1B6882629842EC
:1074300004BF0123836100F01FF86060204600F064
:107440001BF8A060204600F017F80022E06004213D
:107450006068FFF7A7FF01220921A068FFF7A2FFDC
:1074600002221221E068FFF79DFF0123A36110BDF6
:107470000893000899730008F8B51C4B1E68B3699F
:10748000074613B93046FFF7C7FF4836B46873683C
:10749000013B03D5336833B13668F7E7B4F90C50D4
:1074A0006DB16834F4E704213846FFF79FFF306080
:1074B0000028F1D10C233B6004462046F8BD4FF66E
:1074C000FF73E3810123A38165662560A560656084
:1074D00025616561A5610822294604F15C0000F080
:1074E00089F86563A563A564E564E6E70893000889
:1074F0002DE9F8438046894600F14804002614B976
:107500003046BDE8F883A5686768013F01D5246867
:10751000F5E7AB89012B07D9B5F90E30013303D05C
:1075200029464046C84706436835EEE770B50E4623
:10753000B1F90E10002990B014461D4607DA002359
:107540002B60B3891A0610D44FF480630EE001AAB1
:1075500000F060FC0028F2DB029A02F47042A2F50F
:1075600000535A425A412A60EEE74023002023602C
:1075700010B070BD8B8973B59D0706460C4607D5C4
:1075800004F14703236023610123636102B070BDEE
:1075900001AB6A46FFF7CAFF00990546304600F086
:1075A0007FF848B9B4F90C309A05EFD423F00303FF
:1075B00043F00203A381E3E70D4BB362A38920608C
:1075C00043F08003A381009B6361019B20615BB159
:1075D000B4F90E10304600F02FFC28B1A38923F037
:1075E000030343F00103A381A3891D43A581CDE7D4
:1075F0009973000802440346934200D1704703F890
:10760000011BF9E738B50546002945D051F8043C7F
:107610000C1F002BB8BFE41800F04AFC1F4A136887
:10762000104633B9636014602846BDE8384000F066
:1076300040BCA3420CD921686218934204BF1A6867
:107640005B68636004BF521822600460ECE7134675
:107650005A680AB1A242FAD919685818A0420BD147
:1076600020680144581882421960DDD110685268C0
:107670005A6001441960D7E702D90C232B60D3E785
:10768000206821188A4204BF11685268626004BFF2
:10769000091821605C60C7E738BD00BF543E002078
:1076A00070B5CD1C25F0030508350C2D38BF0C2511
:1076B000002D064601DBA94203D90C2333600020CC
:1076C00070BD00F0F5FB234A1468214691B9224CA5
:1076D00023681BB9304600F027FB2060294630465E
:1076E00000F022FB431C26D10C233360304600F00F
:1076F000E0FBE4E70B685B1B1AD40B2B0FD90B6084
:10770000CD50CC18304600F0D4FB04F10B00231D03
:1077100020F00700C31A1BD05A42E25070BD8C42C1
:107720000DBF63684B686360136018BF0C46E9E7E0
:107730000C464968CAE7C41C24F00304A04205D0E3
:10774000211A304600F0F0FA0130CDD02560D9E79B
:1077500070BD00BF543E0020583E00202DE9F04788
:107760008E689E4282460C469146984635D88A8954
:1077700012F4906F31D0256809696F1A6569022388
:1077800005EB450595FBF3F508F101033B449D42EC
:1077900038BF1D46530531D52946FFF781FF064600
:1077A00050B90C23CAF80030A38943F04003A381E9
:1077B0004FF0FF30BDE8F0873A462169FFF7E6FB5E
:1077C000A38923F4906343F08003A381266165615C
:1077D0003E44ED1B2660A5604646464528BF46460A
:1077E00032464946206800F049FBA3689B1BA36012
:1077F00023681E4426600020BDE8F0872A4600F07A
:1078000059FB06460028E1D121695046FFF7FAFEF0
:10781000C7E700002DE9F04F9DB0804603938B89A8
:107820001C060D4616460FD50B696BB94021FFF7B4
:1078300037FF2860286128B90C23C8F800304FF0C2
:10784000FF30C5E040236B610023099320238DF8AE
:10785000293030238DF82A304FF0010B37463C4653
:1078600014F8013B002B3CD1B7EB060A0BD0534672
:10787000324629464046FFF771FF013000F0A380F1
:10788000099B534409933B78002B00F09C80002314
:107890004FF0FF3204930793059206938DF853300F
:1078A0001A93052221785048F8F79AFC671C049B2C
:1078B000D8B9D90644BF20228DF853201A0744BFF7
:1078C0002B228DF8532022782A2A16D0079A0021DD
:1078D0000A20274601343B78303B092B51D9C9B1E6
:1078E00011E0252BC0D02746B9E73F4A801A0BFA92
:1078F00000F0184304903C46D3E7039A111D126828
:107900000391002A01DB079204E0524243F0020394
:10791000079204933B782E2B0ED17B782A2B07F10C
:10792000010132D1039B1A1D1B680392002BB8BFC3
:107930004FF0FF33023705932C4C39780322204651
:10794000F8F74EFC38B14023001B03FA00F0049B0B
:10795000034304930137397825488DF8281006220F
:107960007E1CF8F73DFC002835D0224BFBB9039B69
:10797000073323F0070308330393099B4B44099310
:107980006CE700FB02320121A3E7002305931846B0
:107990000A240F4601313A78303A092A03D9002BDC
:1079A000CAD00590C8E704FB00200123F1E703AB30
:1079B00000932A46104B04A94046AFF30080B0F173
:1079C000FF3F8146D9D1AB895B063FF538AF0998B7
:1079D0001DB0BDE8F08F03AB00932A46064B04A907
:1079E000404600F081F8EAE70C9300081293000883
:1079F00016930008000000005D7700082DE9F047AD
:107A000091461F468A680B69DDF820809342B8BF13
:107A10001346C9F8003091F8432006460C4612B1CF
:107A20000133C9F800302368990642BFD9F8003005
:107A30000233C9F80030256815F0060507D104F1B6
:107A4000190AE368D9F800209B1A9D4229DB94F8B3
:107A500043302268003318BF012392062ED404F16C
:107A6000430239463046C047013021D02368E568DB
:107A7000D9F8002003F00603042B08BFAD1AA36851
:107A800022690CBF25EAE57500259342C4BF9B1A05
:107A9000ED184FF000091A344D451BD10020BDE808
:107AA000F0870123524639463046C047013003D1A2
:107AB0004FF0FF30BDE8F0870135C2E7E1185A1CEE
:107AC000302081F84300224494F8451082F8431096
:107AD0000233C4E70123224639463046C04701300D
:107AE000E6D009F10109D7E72DE9F04317460A7EF0
:107AF00085B06E2A984606460C460C9B01F1430E53
:107B000000F0BC801AD8632A2ED00AD8002A00F0D0
:107B1000C880582A00F08A8004F1420584F8422087
:107B20002AE0642A01D0692AF6D121681A6811F086
:107B3000800F23D0111D1960136827E0732A00F00D
:107B4000B48008D86F2A2AD0702AE5D10A6842F09A
:107B500020020A6003E0752A21D0782ADCD178223D
:107B600084F845206E4964E01A6801F14205111D50
:107B70001960136884F842300123A3E011F0400F2C
:107B800002F104011960D7D0B2F90030002B03DAFA
:107B90002D225B4284F8432062490A2217E02068C4
:107BA000196810F0800F03D0081D18600B6806E0FC
:107BB00010F0400F01F104001860F7D00B8859490C
:107BC0006F2A14BF0A220822002084F84300656847
:107BD000A560002DC0F29C80206820F00400206089
:107BE000002B3FD1002D40F095807546082A0BD11F
:107BF0002368DA0708D5236962689A42DEBF30231A
:107C000005F8013C05F1FF35AEEB05032361CDF826
:107C100000803B4603AA21463046FFF7EFFE0130C5
:107C200055D14FF0FF3005B0BDE8F08381F8452015
:107C30003C492268186812F0800F00F104051D60AD
:107C400001D0036802E05506FBD50388D00744BF86
:107C500042F0200222601BB9226822F0200222603A
:107C60001022B1E77546B3FBF2F002FB1033CB5C98
:107C700005F8013D03460028F5D1B7E708681A6802
:107C8000496910F0800F04D0101D18601368196046
:107C900007E010F0400F02F1040018601368F6D0FE
:107CA0001980002323617546B1E71A68111D196018
:107CB0001568626800212846F8F792FA08B1401B5F
:107CC000606063682361002384F843309FE7236981
:107CD0002A4639463046C0470130A2D023689B0768
:107CE00007D5002504F11909E368039A9B1A9D4200
:107CF00005DBE068039B9842B8BF184693E7012371
:107D00004A4639463046C04701308AD00135EBE754
:107D1000002BA7D10B7884F8423004F1420565E7C7
:107D20002E9300081D93000838B5064C0023054625
:107D30000846236000F092FB431C02D1236803B184
:107D40002B6038BD4C43002010B50C46B1F90E1025
:107D500000F0D6F80028ABBF636DA3891B1823F48D
:107D60008053ACBF6365A38110BD2DE9F0411F4670
:107D70008B89DB0505460C46164605D502230022F5
:107D8000B1F90E1000F068F8A389B4F90E1023F4CD
:107D90008053A38132463B462846BDE8F04100F0BF
:107DA00017B810B50C46B1F90E1000F055F8431C89
:107DB000A38915BF606523F4805343F48053A381E6
:107DC00018BFA38110BDB1F90E1000F013B8000068
:107DD00038B5074C054608461146002222601A466F
:107DE000F9F7C6FD431C02D1236803B12B6038BDEF
:107DF0004C43002038B5064C002305460846236056
:107E000000F004FB431C02D1236803B12B6038BD92
:107E10004C43002038B5074C002305460846114660
:107E2000236000F0FBFA431C02D1236803B12B60EE
:107E300038BD00BF4C43002038B5064C0023054632
:107E40000846236000F0F2FA431C02D1236803B114
:107E50002B6038BD4C43002038B5074C054608461A
:107E60001146002222601A4600F0E8FA431C02D1B3
:107E7000236803B12B6038BD4C430020884210B505
:107E800001EB020303D8421E99420CD110BD984267
:107E9000F9D28118D21AD34200D110BD13F8014D86
:107EA00001F8014DF7E711F8014B02F8014FEBE73C
:107EB00070477047F8B5074614460E4621B911467B
:107EC000BDE8F840FFF7ECBB22B9FFF79BFB254666
:107ED0002846F8BD00F026F884420FD921463846DE
:107EE000FFF7DEFB05460028F2D031462246FFF7B9
:107EF0004DF831463846FFF785FBE9E73546E7E7B9
:107F000038B5074C054608461146002222601A463D
:107F100000F09CFA431C02D1236803B12B6038BDEA
:107F20004C43002051F8040C0028A0F10400BCBF11
:107F30000B58C0187047000070B52DED028B8AB049
:107F400055EC104B00F078F8364BB0EE408AF0EE6E
:107F5000608A93F90060731C5BD022462B46204652
:107F60002946F8F7DFFD002853D1002200232046E0
:107F70002946F8F7CDFD00284BD12B4B01930890F3
:107F8000CDE90245CDE90445A6B9284B4FF0604242
:107F9000CDE906232046002200232946F8F790FD6C
:107FA00040BB0123022E009319D100F029FA2123AE
:107FB000036019E01E4B0022CDE906232046002273
:107FC00000232946F8F77CFD0028EAD002239E42D0
:107FD000009311D100F014FA2223036011E06846E7
:107FE00000F002FA0028E0D0124800F001FA8DED0E
:107FF000060B06E002230093684600F0F5F900281E
:10800000E8D0089B1BB100F0FBF9089B03609DEDD5
:10801000068BB0EE480AF0EE680A0AB0BDEC028B9F
:1080200070BD00BF700000203F930008FFFFEFC746
:108030000000F0FFA08F00082DE9F04F51EC100B6D
:10804000B1F5801F87B010EE103A0D4627DA21F007
:10805000004213430AD1CC49002200230020F8F744
:10806000F1FB41EC100B07B0BDE8F08F002907DAF7
:1080700010EE102A0B46F8F707F900220023EEE76E
:10808000C24B0022F8F7B4FA6FF035030D46C04A30
:10809000954206DD02460B46F8F7F8F8E1E70023C3
:1080A000F5E72C15A4F2FF34C5F313051C4405F5C0
:1080B000152303F6647303F4801383F07F5282F474
:1080C000401242EA050104EB13540022B14BF8F7C9
:1080D000DBF8AB1CC3F31303022B82468B464FF035
:1080E00000025BDC0023F8F7EBFCD0B1002C00F0C1
:1080F00070812046F8F716FA8FA3D3E900230646CD
:108100000F46F8F775FA8EA3D3E9002304460D460F
:1081100030463946F8F76CFA02460B4620462946A7
:10812000BAE789A3D3E9002350465946F8F760FA25
:1081300002460B4600209849F8F7A6F85246064634
:108140000F465B4650465946F8F752FA02460B4630
:1081500030463946F8F74CFA06460F4634B902461F
:108160000B4650465946F8F78FF87AE72046F8F75D
:10817000D9F971A3D3E9002380468946F8F738FA84
:108180006FA3D3E9002304460D4640464946F8F75D
:108190002FFA02460B4630463946B2E04FF0804394
:1081A000F8F774F802460B4650465946F8F74AFB72
:1081B000CDE900012046F8F7B5F9DDE90023CDE966
:1081C000020110461946F8F713FA02460B46CDE9AC
:1081D0000401F8F70DFA5EA3D3E9002306460F4623
:1081E000F8F706FA5CA3D3E90023F8F74FF8324614
:1081F0003B46F8F7FDF95AA3D3E90023F8F746F810
:1082000032463B46F8F7F4F957A3D3E90023F8F7D1
:108210003DF8DDE90423F8F7EBF955A3D3E9002392
:10822000CDE9040130463946F8F7E2F952A3D3E923
:108230000023F8F72BF832463B46F8F7D9F950A35C
:10824000D3E90023F8F722F832463B46F8F7D0F995
:10825000A5F5C22802460B46C5F5D725DDE9040180
:10826000F8F714F8A8F27A48513545EA0805002DC8
:1082700006460F4650DD0022474B50465946F8F758
:10828000B7F952465B46F8F7B3F98046894694B988
:1082900002460B4630463946F7F7F8FFDDE9002382
:1082A000F8F7A6F902460B4640464946F7F7ECFFB9
:1082B00002460B4655E720A3D3E90023DDE902017E
:1082C000F8F796F942464B4604460D463046394685
:1082D000F7F7DCFFDDE90023F8F78AF918A3D3E903
:1082E000002306460F46DDE90201F8F781F9024650
:1082F0000B4630463946F7F7C9FF02460B46404663
:108300004946F7F7C1FF52465B46F7F7BDFF024605
:108310000B462046294626E7002C3FD102460B4655
:1083200050465946F7F7B0FFDDE90023F8F760F94A
:10833000BEE700BFAFF300800000E0FE422EE63F44
:10834000763C7935EF39EA3D555555555555D53F6C
:1083500044523EDF12F1C23FDE03CB966446C73F74
:10836000599322942449D23F935555555555E53F8D
:108370009FC678D0099AC33FAF788E1DC571CC3F98
:1083800004FA97999999D93F000050C300005043CF
:10839000FFFFEF7F0000F03F0000E03F0EA3D3E9B6
:1083A0000023DDE90201F8F723F932463B46044693
:1083B0000D4650465946F7F767FFDDE90023F8F709
:1083C00017F907A3D3E9002306460F46DDE90201AA
:1083D000DDE60020002144E60000E0FE422EE63FFC
:1083E000763C7935EF39EA3D002070470000000007
:1083F0009FED010B704700BF000000000000F87FF8
:10840000014B1868704700BF0C000020024B582237
:108410001A604FF0FF3070474C430020024B582247
:108420001A604FF0FF3070474C430020024B582237
:108430001A600020704700BF4C430020024B5822B6
:108440001A604FF0FF3070474C430020024B582217
:108450001A604FF0FF3070474C430020044B1968FE
:10846000024609B903491960186802441A60704746
:108470005C3E002050430020F8B500BFF8BC08BCAB
:108480009E467047F8B500BFF8BC08BC9E467047D2
:10849000CA8F00081D150008000000000000000041
:1084A00080000000BD8F00085D150008000000007E
:1084B0000000000080000000B58F00086D15000866
:1084C000000000000000000080000000AA8F0008EB
:1084D00011150008000000000000000080000000EE
:1084E000A18F00085D1600080000000000000000D9
:1084F00080000000000000000000000000000000FC
:10850000000000003F4000000000000000003000BC
:10851000400030004000000009000BC03D000BC0CF
:108520003D00090018C024407FE022403180000057
:10853000180024C01B000D803240018003801C40C5
:1085400027401C8007400040100060000000000031
:10855000000000000000000000001F8020404020BC
:108560000000402020401F8000000000090006009D
:108570001F80060009000000040004003F80040082
:108580000400000000100060000000000000000077
:108590000400040004000400040000000000004087
:1085A0000000000000000000002001C006003800AC
:1085B000400000001F802040204020401F8000001D
:1085C000000010403FC000400000000018C02140E3
:1085D00022402440184000001080204024402440C5
:1085E0001B80000002000D0011003FC00140000090
:1085F0003C80244024402440238000001F802440ED
:1086000024403440038000003000200027C03800A0
:10861000200000001B802440244024401B800000D8
:108620001C0022C0224022401F80000000000000E9
:10863000084000000000000000000000046000008E
:1086400000000000000004000A00110020804040EB
:10865000090009000900090009000000000040406D
:10866000208011000A00040018002000234024008C
:10867000180000001F802040274029401F400000B4
:10868000004007C039000F0001C0004020403FC03B
:10869000244024401B8000001F80204020402040B8
:1086A0003080000020403FC0204020401F8000005C
:1086B00020403FC024402E4030C0000020403FC03A
:1086C00024402E00300000000F0010802040224087
:1086D0003380020020403FC0040004003FC020401F
:1086E000204020403FC0204020400000006020206B
:1086F00020203FC02000200020403FC024400B002D
:1087000030C0204020403FC020400040004000C01A
:108710003FC03C0003C03C003FC0000020403FC0C1
:108720000C4023003FC020001F80204020402040FC
:108730001F80000020403FC024402400180000009B
:108740001F802140214020E01FA0000020403FC0AA
:108750002440260019C0004018C024402440224074
:1087600031800000300020403FC020403000000039
:1087700020003F80004000403F80200020003E005D
:1087800001C0070038002000380007C03C0007C0C7
:1087900038000000204039C0060039C020400000E9
:1087A0002000384007C0384020000000304021C081
:1087B0002640384020C00000000000007FE040203C
:1087C00040200000000070000C000380004000000A
:1087D0000000402040207FE000000000000020005A
:1087E00040002000000000000010001000100010E9
:1087F0000010001000000000400000000000000019
:10880000000002800540054003C0004020003FC03A
:108810000440044003800000000003800440044042
:108820000640000000000380044024403FC0004098
:1088300000000380054005400340000000000440A4
:108840001FC0244024402000000002E005500550D5
:108850000650042020403FC00440040003C00040F4
:108860000000044027C0004000000000001000107D
:10887000041027E00000000020403FC00140070036
:1088800004C00440204020403FC0004000400000A1
:1088900007C0040007C0040003C00000044007C074
:1088A0000440040003C00040000003800440044072
:1088B00003800000041007F004500440038000000F
:1088C000000003800440045007F00010044007C07B
:1088D000024004000400000000000640054005407E
:1088E00004C00000000004001F800440004000009D
:1088F000040007800040044007C000400400070057
:1089000004C0018006000400060001C0070001C089
:1089100006000000044006C0010006C0044000003C
:108920000410071004E00180060004000000044069
:1089300005C00640044000000000000004007BE089
:1089400040200000000000000000FFF000000000D8
:10895000000040207BE00400000000004000800098
:108960004000200020004000000000000000000047
:1089700000000000000000000000000000001FCC0C
:10898000000C000000000000000008003000600043
:108990000800300060000000022003FC1E200220BE
:1089A00003FC1E200220000000000E1811043FFFEF
:1089B00010840C78000000000F0010840F3800C0F5
:1089C000077818840078000000780F8410C4112400
:1089D0000E9800E4008400080800680070000000A1
:1089E000000000000000000000000000000007E0A0
:1089F000181820044002000000004002200418184B
:108A000007E00000000000000240024001800FF07B
:108A100001800240024000000080008000800FF8CA
:108A200000800080008000000001000D000E0000AA
:108A300000000000000000000000008000800080B6
:108A400000800080008000800000000C000C00000E
:108A50000000000000000000000000060018006098
:108A60000180060018002000000007F0080810042C
:108A70001004080807F000000000080408041FFCA8
:108A8000000400040000000000000E0C101410246C
:108A9000104411840E0C000000000C181004110486
:108AA000110412880C700000000000E00320042470
:108AB00008241FFC0024000000001F9810841104EB
:108AC0001104108810700000000007F008881104DD
:108AD000110418880070000000001C00100010FC39
:108AE00013001C001000000000000E381144108418
:108AF000108411440E38000000000700088C104458
:108B00001044088807F00000000000000000030C7B
:108B1000030C00000000000000000000000101063E
:108B20000000000000000000000000800140022062
:108B30000410080810040000022002200220022075
:108B40000220022002200000000010040808041087
:108B5000022001400080000000000E001200100CF6
:108B6000106C10800F00000003E00C1813E41424B4
:108B700017C4082807D000000004003C03C41C40B0
:108B8000074000E4001C000410041FFC1104110441
:108B900011040E880070000003E00C18100410048B
:108BA000100410081C10000010041FFC1004100416
:108BB0001004080807F0000010041FFC1104110441
:108BC00017C410040818000010041FFC1104110041
:108BD00017C010000800000003E00C181004100477
:108BE00010441C780040000010041FFC108400801A
:108BF000008010841FFC10040000100410041FFCEF
:108C00001004100400000000000300011001100116
:108C10001FFE10001000000010041FFC1104038050
:108C20001464181C1004000010041FFC100400043D
:108C300000040004000C000010041FFC1F0000FCD6
:108C40001F001FFC1004000010041FFC0C04030094
:108C500000E010181FFC100007F0080810041004B2
:108C60001004080807F0000010041FFC1084108096
:108C7000108010800F00000007F008181024102446
:108C8000101C080A07F2000010041FFC1104110058
:108C900011C011300E0C000400000E1C11041084D1
:108CA000108410441C3800001800100010041FFC31
:108CB000100410001800000010001FF81004000439
:108CC000000410041FF8100010001E0011E0001C2A
:108CD000007013801C0010001FC0103C00E01F003B
:108CE00000E0103C1FC000001004180C163401C036
:108CF00001C01634180C100410001C00130400FCF2
:108D000013041C00100000000804101C10641084E0
:108D100013041C04101800000000000000007FFE77
:108D20004002400240020000000030000C000380BE
:108D30000060001C000300000000400240024002EE
:108D40007FFE000000000000000000002000400046
:108D5000400040002000000000010001000100016F
:108D6000000100010001000100004000400020005F
:108D700000000000000000000000009801240144F1
:108D80000144014400FC000410001FFC00880104A1
:108D900001040088007000000000007000880104D9
:108DA0000104010400880000000000700088010434
:108DB000010411081FFC0004000000F801440144F4
:108DC0000144014400C800000000010401040FFC3C
:108DD0001104110411001800000000D60129012916
:108DE000012901C90106000010041FFC00840100D4
:108DF0000100010400FC000400000104190419FC36
:108E00000004000400000000000000030001010154
:108E1000190119FE0000000010041FFC002400408E
:108E200001B4010C010400000000100410041FFC38
:108E30000004000400000000010401FC0104010022
:108E400001FC0104010000FC010401FC008401009C
:108E50000100010400FC0004000000F8010401040A
:108E60000104010400F80000010101FF0085010474
:108E700001040088007000000000007000880104F8
:108E80000104010501FF00010104010401FC00844B
:108E90000104010001800000000000CC0124012435
:108EA000012401240198000000000100010007F8DE
:108EB0000104010400000000010001F800040004A6
:108EC0000004010801FC0004010001800170000C95
:108ED000001001600180010001F0010C003001C0B0
:108EE0000030010C01F0010000000104018C00744D
:108EF0000170018C01040000010101810171000E6B
:108F0000001801600180010000000184010C01349F
:108F100001440184010C000000000000000000007A
:108F200001003EFC40024002000000000000000082
:108F3000FFFF0000000000000000400240023EFC75
:108F400001000000000000000000600080008000C0
:108F500040004000200020002E2E5C2E2E5C2E2E85
:108F60005C5372635C6164632E6300204545562048
:108F700044524956455200422E4D696368616C6106
:108F80006B0032323633393200202020202020205E
:108F9000202020202076302E310062617365640D20
:108FA0000074656D705461736B006D616E6167650F
:108FB0005461736B004755495461736B00504944C9
:108FC00076616C76655461736B006D6F746F72437C
:108FD0006F6E74726F6C546173002E2E5C2E2E5C5B
:108FE0002E2E5C5372635C6932632E63002E2E5CFE
:108FF0002E2E5C2E2E5C5372635C7274632E6300A3
:109000002E2E5C2E2E5C2E2E5C5372635C73706968
:109010002E63002E2E5C2E2E5C2E2E5C5372635C13
:1090200074696D2E63002E2E5C2E2E5C2E2E5C53EA
:1090300072635C75736172742E630000000000003F
:1090400000000001020304060708090000000001F7
:1090500002030400061016000610162020204465A6
:109060006C74615400202025642E2564205B2A4303
:109070005D0020204F545741524349450020202095
:109080005A45524F574500202020202564002020BB
:109090005B255D0020202020204B70002020202018
:1090A00025642E2564200020202020204B690020EC
:1090B00020202025642E25640020202020204B64C1
:1090C000002020504152414D45545259004F5457B1
:1090D00041524349453D25640044656C7461543DEB
:1090E00025642E25645B2A435D0054313D25642EA2
:1090F0002564205B2A435D0054323D25642E25649F
:10910000205B2A435D0049444C4500546D72510078
:10911000546D7220537663000600000087920008A9
:1091200004FF00000000000050910008F8910008C2
:1091300034910008050000008492000803FF00003D
:109140000000000050910008189100086C91000880
:109150000300000077920008FFFF00006C910008F8
:10916000C091000814920008DC910008040000007F
:109170008192000802FF00000000000050910008EA
:109180003491000800000000010000006692000811
:1091900000FF000000000000C0910008DC91000802
:1091A00000000000090000008F92000805FF000089
:1091B000000000000000000030920008C09100088C
:1091C0000000000059920008FFFF0000889100088D
:1091D00000000000A4910008000000000200000050
:1091E0006E92000801FF000000000000C09100081E
:1091F0005091000888910008070000008A9200083A
:10920000FFFF000000000000509100080000000077
:1092100018910008080000008A920008FFFF000073
:1092200000000000C09100080000000050910008FC
:109230000A00000061920008FFFF0000000000002B
:109240000000000000000000A4910008C091000888
:10925000454556204D454E55004E415354415759B2
:1092600000455849540044454C5441205400504B4B
:1092700054205A45524F00524547554C41544F5285
:10928000004B50004B49004B44004241434B0050BF
:109290004152414D45545259003E00656E61626C29
:1092A000650D006469720D00000000000000000000
:1092B00000000000000000000000000000000000AE
:1092C000000000000000000000000000000000009E
:1092D000000000000000000000000000000000008E
:1092E000000000000000000000000000000000007E
:1092F000000000000000000000000000000000006E
:10930000000000000000000010000020232D302B82
:109310002000686C4C006566674546470030313276
:1093200033343536373839414243444546003031CD
:109330003233343536373839616263646566006CC0
:049340006F67000053
:089344002C79FF7F01000000FD
:04934C00C50100084F
:04935000A10100086F
:109354000024F40001000000AAAAAAAA1000002018
:1093640000000000C8920008E8920008A8920008D3
:1093740000000000000000000000000000000000E9
:1093840000000000000000000000000000000000D9
:1093940000000000000000000000000000000000C9
:1093A40000000000000000000000000000000000B9
:1093B40000000000000000000000000000000000A9
:0493C40001000000A4
:0400000508000F518F
:00000001FF
